{
  "contractName": "DarkForestV1",
  "abi": [
    {
      "anonymous": false,
      "inputs": [
        {
          "components": [
            {
              "internalType": "uint256",
              "name": "departureTime",
              "type": "uint256"
            },
            {
              "internalType": "uint256",
              "name": "arrivalTime",
              "type": "uint256"
            },
            {
              "internalType": "address",
              "name": "player",
              "type": "address"
            },
            {
              "internalType": "uint256",
              "name": "oldLoc",
              "type": "uint256"
            },
            {
              "internalType": "uint256",
              "name": "newLoc",
              "type": "uint256"
            },
            {
              "internalType": "uint256",
              "name": "maxDist",
              "type": "uint256"
            },
            {
              "internalType": "uint256",
              "name": "shipsMoved",
              "type": "uint256"
            }
          ],
          "indexed": false,
          "internalType": "struct DarkForestV1.QueuedArrival",
          "name": "arrival",
          "type": "tuple"
        }
      ],
      "name": "ArrivalQueued",
      "type": "event"
    },
    {
      "anonymous": false,
      "inputs": [
        {
          "indexed": false,
          "internalType": "uint256",
          "name": "loc",
          "type": "uint256"
        }
      ],
      "name": "PlanetDestroyed",
      "type": "event"
    },
    {
      "anonymous": false,
      "inputs": [
        {
          "indexed": false,
          "internalType": "address",
          "name": "player",
          "type": "address"
        },
        {
          "indexed": false,
          "internalType": "uint256",
          "name": "loc",
          "type": "uint256"
        }
      ],
      "name": "PlayerInitialized",
      "type": "event"
    },
    {
      "payable": true,
      "stateMutability": "payable",
      "type": "fallback"
    },
    {
      "constant": true,
      "inputs": [
        {
          "internalType": "uint256",
          "name": "",
          "type": "uint256"
        }
      ],
      "name": "defaultCapacity",
      "outputs": [
        {
          "internalType": "uint256",
          "name": "",
          "type": "uint256"
        }
      ],
      "payable": false,
      "stateMutability": "view",
      "type": "function"
    },
    {
      "constant": true,
      "inputs": [
        {
          "internalType": "uint256",
          "name": "",
          "type": "uint256"
        }
      ],
      "name": "defaultGrowth",
      "outputs": [
        {
          "internalType": "uint256",
          "name": "",
          "type": "uint256"
        }
      ],
      "payable": false,
      "stateMutability": "view",
      "type": "function"
    },
    {
      "constant": true,
      "inputs": [
        {
          "internalType": "uint256",
          "name": "",
          "type": "uint256"
        }
      ],
      "name": "defaultHardiness",
      "outputs": [
        {
          "internalType": "uint256",
          "name": "",
          "type": "uint256"
        }
      ],
      "payable": false,
      "stateMutability": "view",
      "type": "function"
    },
    {
      "constant": true,
      "inputs": [
        {
          "internalType": "uint256",
          "name": "",
          "type": "uint256"
        }
      ],
      "name": "defaultStalwartness",
      "outputs": [
        {
          "internalType": "uint256",
          "name": "",
          "type": "uint256"
        }
      ],
      "payable": false,
      "stateMutability": "view",
      "type": "function"
    },
    {
      "constant": true,
      "inputs": [],
      "name": "nPlanetTypes",
      "outputs": [
        {
          "internalType": "uint256",
          "name": "",
          "type": "uint256"
        }
      ],
      "payable": false,
      "stateMutability": "view",
      "type": "function"
    },
    {
      "constant": true,
      "inputs": [
        {
          "internalType": "address",
          "name": "",
          "type": "address"
        }
      ],
      "name": "nPlayerTransactions",
      "outputs": [
        {
          "internalType": "uint256",
          "name": "",
          "type": "uint256"
        }
      ],
      "payable": false,
      "stateMutability": "view",
      "type": "function"
    },
    {
      "constant": true,
      "inputs": [
        {
          "internalType": "uint256",
          "name": "",
          "type": "uint256"
        }
      ],
      "name": "planetIds",
      "outputs": [
        {
          "internalType": "uint256",
          "name": "",
          "type": "uint256"
        }
      ],
      "payable": false,
      "stateMutability": "view",
      "type": "function"
    },
    {
      "constant": true,
      "inputs": [
        {
          "internalType": "uint256",
          "name": "",
          "type": "uint256"
        }
      ],
      "name": "planetMetadatas",
      "outputs": [
        {
          "internalType": "uint256",
          "name": "locationId",
          "type": "uint256"
        },
        {
          "internalType": "address",
          "name": "owner",
          "type": "address"
        },
        {
          "internalType": "uint8",
          "name": "version",
          "type": "uint8"
        },
        {
          "internalType": "bool",
          "name": "destroyed",
          "type": "bool"
        },
        {
          "internalType": "uint256",
          "name": "pendingCount",
          "type": "uint256"
        },
        {
          "internalType": "bool",
          "name": "exists",
          "type": "bool"
        },
        {
          "internalType": "bytes32",
          "name": "entropySource",
          "type": "bytes32"
        }
      ],
      "payable": false,
      "stateMutability": "view",
      "type": "function"
    },
    {
      "constant": true,
      "inputs": [],
      "name": "planetRarity",
      "outputs": [
        {
          "internalType": "uint256",
          "name": "",
          "type": "uint256"
        }
      ],
      "payable": false,
      "stateMutability": "view",
      "type": "function"
    },
    {
      "constant": true,
      "inputs": [
        {
          "internalType": "uint256",
          "name": "",
          "type": "uint256"
        }
      ],
      "name": "planets",
      "outputs": [
        {
          "internalType": "uint256",
          "name": "locationId",
          "type": "uint256"
        },
        {
          "internalType": "address",
          "name": "owner",
          "type": "address"
        },
        {
          "internalType": "enum DarkForestV1.PlanetType",
          "name": "planetType",
          "type": "uint8"
        },
        {
          "internalType": "uint256",
          "name": "capacity",
          "type": "uint256"
        },
        {
          "internalType": "uint256",
          "name": "growth",
          "type": "uint256"
        },
        {
          "internalType": "uint256",
          "name": "hardiness",
          "type": "uint256"
        },
        {
          "internalType": "uint256",
          "name": "stalwartness",
          "type": "uint256"
        },
        {
          "internalType": "uint256",
          "name": "population",
          "type": "uint256"
        },
        {
          "internalType": "uint256",
          "name": "lastUpdated",
          "type": "uint256"
        },
        {
          "internalType": "bool",
          "name": "coordinatesRevealed",
          "type": "bool"
        },
        {
          "internalType": "uint256",
          "name": "x",
          "type": "uint256"
        },
        {
          "internalType": "uint256",
          "name": "y",
          "type": "uint256"
        }
      ],
      "payable": false,
      "stateMutability": "view",
      "type": "function"
    },
    {
      "constant": true,
      "inputs": [
        {
          "internalType": "uint256",
          "name": "",
          "type": "uint256"
        }
      ],
      "name": "playerIds",
      "outputs": [
        {
          "internalType": "address",
          "name": "",
          "type": "address"
        }
      ],
      "payable": false,
      "stateMutability": "view",
      "type": "function"
    },
    {
      "constant": true,
      "inputs": [
        {
          "internalType": "address",
          "name": "",
          "type": "address"
        }
      ],
      "name": "playerInitialized",
      "outputs": [
        {
          "internalType": "bool",
          "name": "",
          "type": "bool"
        }
      ],
      "payable": false,
      "stateMutability": "view",
      "type": "function"
    },
    {
      "constant": true,
      "inputs": [],
      "name": "totalCap",
      "outputs": [
        {
          "internalType": "uint256",
          "name": "",
          "type": "uint256"
        }
      ],
      "payable": false,
      "stateMutability": "view",
      "type": "function"
    },
    {
      "constant": true,
      "inputs": [
        {
          "internalType": "uint256[2]",
          "name": "a",
          "type": "uint256[2]"
        },
        {
          "internalType": "uint256[2][2]",
          "name": "b",
          "type": "uint256[2][2]"
        },
        {
          "internalType": "uint256[2]",
          "name": "c",
          "type": "uint256[2]"
        },
        {
          "internalType": "uint256[1]",
          "name": "input",
          "type": "uint256[1]"
        }
      ],
      "name": "verifyInitProof",
      "outputs": [
        {
          "internalType": "bool",
          "name": "",
          "type": "bool"
        }
      ],
      "payable": false,
      "stateMutability": "view",
      "type": "function"
    },
    {
      "constant": true,
      "inputs": [
        {
          "internalType": "uint256[2]",
          "name": "a",
          "type": "uint256[2]"
        },
        {
          "internalType": "uint256[2][2]",
          "name": "b",
          "type": "uint256[2][2]"
        },
        {
          "internalType": "uint256[2]",
          "name": "c",
          "type": "uint256[2]"
        },
        {
          "internalType": "uint256[3]",
          "name": "input",
          "type": "uint256[3]"
        }
      ],
      "name": "verifyMoveProof",
      "outputs": [
        {
          "internalType": "bool",
          "name": "",
          "type": "bool"
        }
      ],
      "payable": false,
      "stateMutability": "view",
      "type": "function"
    },
    {
      "constant": true,
      "inputs": [],
      "name": "xSize",
      "outputs": [
        {
          "internalType": "uint256",
          "name": "",
          "type": "uint256"
        }
      ],
      "payable": false,
      "stateMutability": "view",
      "type": "function"
    },
    {
      "constant": true,
      "inputs": [],
      "name": "ySize",
      "outputs": [
        {
          "internalType": "uint256",
          "name": "",
          "type": "uint256"
        }
      ],
      "payable": false,
      "stateMutability": "view",
      "type": "function"
    },
    {
      "constant": true,
      "inputs": [],
      "name": "getNPlanets",
      "outputs": [
        {
          "internalType": "uint256",
          "name": "",
          "type": "uint256"
        }
      ],
      "payable": false,
      "stateMutability": "view",
      "type": "function"
    },
    {
      "constant": true,
      "inputs": [],
      "name": "getNPlayers",
      "outputs": [
        {
          "internalType": "uint256",
          "name": "",
          "type": "uint256"
        }
      ],
      "payable": false,
      "stateMutability": "view",
      "type": "function"
    },
    {
      "constant": true,
      "inputs": [],
      "name": "getBalance",
      "outputs": [
        {
          "internalType": "uint256",
          "name": "",
          "type": "uint256"
        }
      ],
      "payable": false,
      "stateMutability": "view",
      "type": "function"
    },
    {
      "constant": false,
      "inputs": [
        {
          "internalType": "uint256[2]",
          "name": "_a",
          "type": "uint256[2]"
        },
        {
          "internalType": "uint256[2][2]",
          "name": "_b",
          "type": "uint256[2][2]"
        },
        {
          "internalType": "uint256[2]",
          "name": "_c",
          "type": "uint256[2]"
        },
        {
          "internalType": "uint256[1]",
          "name": "_input",
          "type": "uint256[1]"
        }
      ],
      "name": "initializePlayer",
      "outputs": [],
      "payable": false,
      "stateMutability": "nonpayable",
      "type": "function"
    },
    {
      "constant": false,
      "inputs": [
        {
          "internalType": "uint256[2]",
          "name": "_a",
          "type": "uint256[2]"
        },
        {
          "internalType": "uint256[2][2]",
          "name": "_b",
          "type": "uint256[2][2]"
        },
        {
          "internalType": "uint256[2]",
          "name": "_c",
          "type": "uint256[2]"
        },
        {
          "internalType": "uint256[4]",
          "name": "_input",
          "type": "uint256[4]"
        }
      ],
      "name": "move",
      "outputs": [],
      "payable": false,
      "stateMutability": "nonpayable",
      "type": "function"
    },
    {
      "constant": true,
      "inputs": [
        {
          "internalType": "uint256",
          "name": "_planetLoc",
          "type": "uint256"
        },
        {
          "internalType": "uint256",
          "name": "_arrivalIdx",
          "type": "uint256"
        }
      ],
      "name": "getArrival",
      "outputs": [
        {
          "components": [
            {
              "internalType": "uint256",
              "name": "departureTime",
              "type": "uint256"
            },
            {
              "internalType": "uint256",
              "name": "arrivalTime",
              "type": "uint256"
            },
            {
              "internalType": "address",
              "name": "player",
              "type": "address"
            },
            {
              "internalType": "uint256",
              "name": "oldLoc",
              "type": "uint256"
            },
            {
              "internalType": "uint256",
              "name": "newLoc",
              "type": "uint256"
            },
            {
              "internalType": "uint256",
              "name": "maxDist",
              "type": "uint256"
            },
            {
              "internalType": "uint256",
              "name": "shipsMoved",
              "type": "uint256"
            }
          ],
          "internalType": "struct DarkForestV1.QueuedArrival",
          "name": "",
          "type": "tuple"
        }
      ],
      "payable": false,
      "stateMutability": "view",
      "type": "function"
    },
    {
      "constant": false,
      "inputs": [
        {
          "internalType": "address",
          "name": "newOwner",
          "type": "address"
        }
      ],
      "name": "setOwner",
      "outputs": [],
      "payable": false,
      "stateMutability": "nonpayable",
      "type": "function"
    },
    {
      "constant": false,
      "inputs": [],
      "name": "pauseGame",
      "outputs": [],
      "payable": false,
      "stateMutability": "nonpayable",
      "type": "function"
    },
    {
      "constant": false,
      "inputs": [],
      "name": "resumeGame",
      "outputs": [],
      "payable": false,
      "stateMutability": "nonpayable",
      "type": "function"
    },
    {
      "constant": false,
      "inputs": [],
      "name": "endGame",
      "outputs": [],
      "payable": false,
      "stateMutability": "nonpayable",
      "type": "function"
    }
  ],
  "bytecode": "0x608060405260008060006101000a81548160ff02191690831515021790555060008060016101000a81548160ff021916908315150217905550612000600155612000600255612000600355600c6004556000600555604051806101800160405280600063ffffffff168152602001620186a063ffffffff168152602001620249f063ffffffff1681526020016207a12063ffffffff1681526020016216e36063ffffffff168152602001624c4b4063ffffffff16815260200162e4e1c063ffffffff1681526020016302625a0063ffffffff1681526020016305f5e10063ffffffff168152602001630bebc20063ffffffff1681526020016314dc938063ffffffff168152602001631dcd650063ffffffff16815250600690600c6200012792919062000384565b50604051806101800160405280600061ffff1681526020016101f461ffff16815260200161029b61ffff16815260200161034161ffff1681526020016103e861ffff16815260200161048f61ffff16815260200161053561ffff1681526020016105dc61ffff1681526020016106d661ffff1681526020016107d061ffff1681526020016108ca61ffff1681526020016109c461ffff16815250601290600c620001d3929190620003d1565b50604051806101800160405280600061ffff168152602001603261ffff168152602001604b61ffff168152602001606461ffff168152602001607d61ffff168152602001609661ffff16815260200160af61ffff16815260200160c861ffff16815260200160e161ffff16815260200160fa61ffff16815260200161011361ffff16815260200161012c61ffff16815250601e90600c62000276929190620003d1565b50604051806101800160405280600061ffff16815260200161019061ffff16815260200161015e61ffff16815260200161012c61ffff16815260200160fa61ffff16815260200160c861ffff16815260200160af61ffff168152602001609661ffff168152602001607d61ffff168152602001606e61ffff168152602001606461ffff168152602001606461ffff16815250602a90600c6200031a929190620003d1565b50731aa18f5b595d87cc2c66d7b93367d8beabe203bb603660006101000a81548173ffffffffffffffffffffffffffffffffffffffff021916908373ffffffffffffffffffffffffffffffffffffffff1602179055503480156200037d57600080fd5b5062000444565b82600c8101928215620003be579160200282015b82811115620003bd578251829063ffffffff1690559160200191906001019062000398565b5b509050620003cd91906200041c565b5090565b82600c810192821562000409579160200282015b8281111562000408578251829061ffff16905591602001919060010190620003e5565b5b5090506200041891906200041c565b5090565b6200044191905b808211156200043d57600081600090555060010162000423565b5090565b90565b615bf680620004546000396000f3fe60806040526004361061019c5760003560e01c8063607eb4d5116100ec5780638bbfd26b1161008a578063c68b812611610064578063c68b81261461069a578063cdfbc0d5146106c5578063d9865e3314610708578063e211c072146107335761019c565b80638bbfd26b146105e3578063ad48909114610620578063c012b1121461065d5761019c565b80637ee11357116100c65780637ee11357146105155780638190f0921461053e57806383d2b0961461057b5780638a05b329146105b85761019c565b8063607eb4d5146104985780636cbc2ded146104d5578063717be3c8146104ec5761019c565b8063274ee0bf11610159578063499831f211610133578063499831f2146103dc578063525d705a146103f3578063592263571461041e5780635a6484651461045b5761019c565b8063274ee0bf1461035d5780632df370bc1461039a5780633cc4c6ce146103c55761019c565b8063096b3cd91461022e57806312065fe01461025957806313af40351461028457806316450092146102ad5780631d9b0a8f146102d857806326c1e75014610315575b603660009054906101000a900473ffffffffffffffffffffffffffffffffffffffff1673ffffffffffffffffffffffffffffffffffffffff163373ffffffffffffffffffffffffffffffffffffffff161461022c576040517f08c379a0000000000000000000000000000000000000000000000000000000008152600401610223906157ab565b60405180910390fd5b005b34801561023a57600080fd5b50610243610770565b60405161025091906158a6565b60405180910390f35b34801561026557600080fd5b5061026e610776565b60405161027b91906158a6565b60405180910390f35b34801561029057600080fd5b506102ab60048036036102a691908101906152a3565b610795565b005b3480156102b957600080fd5b506102c26108a3565b6040516102cf91906158a6565b60405180910390f35b3480156102e457600080fd5b506102ff60048036036102fa9190810190615424565b6108a9565b60405161030c919061588b565b60405180910390f35b34801561032157600080fd5b5061033c600480360361033791908101906153fb565b61097d565b6040516103549c9b9a999897969594939291906158c1565b60405180910390f35b34801561036957600080fd5b50610384600480360361037f91908101906152a3565b610a17565b6040516103919190615790565b60405180910390f35b3480156103a657600080fd5b506103af610a37565b6040516103bc91906158a6565b60405180910390f35b3480156103d157600080fd5b506103da610a3d565b005b3480156103e857600080fd5b506103f1610b1a565b005b3480156103ff57600080fd5b50610408610bf8565b60405161041591906158a6565b60405180910390f35b34801561042a57600080fd5b50610445600480360361044091908101906153fb565b610bfe565b60405161045291906158a6565b60405180910390f35b34801561046757600080fd5b50610482600480360361047d9190810190615331565b610c16565b60405161048f9190615790565b60405180910390f35b3480156104a457600080fd5b506104bf60048036036104ba91908101906152a3565b610cb2565b6040516104cc91906158a6565b60405180910390f35b3480156104e157600080fd5b506104ea610cca565b005b3480156104f857600080fd5b50610513600480360361050e91908101906152cc565b611110565b005b34801561052157600080fd5b5061053c60048036036105379190810190615396565b61132d565b005b34801561054a57600080fd5b50610565600480360361056091908101906153fb565b611421565b60405161057291906158a6565b60405180910390f35b34801561058757600080fd5b506105a2600480360361059d91908101906153fb565b611439565b6040516105af91906158a6565b60405180910390f35b3480156105c457600080fd5b506105cd611451565b6040516105da91906158a6565b60405180910390f35b3480156105ef57600080fd5b5061060a600480360361060591908101906153fb565b61145e565b60405161061791906158a6565b60405180910390f35b34801561062c57600080fd5b50610647600480360361064291908101906153fb565b611476565b60405161065491906158a6565b60405180910390f35b34801561066957600080fd5b50610684600480360361067f91908101906153fb565b611497565b604051610691919061574c565b60405180910390f35b3480156106a657600080fd5b506106af6114d3565b6040516106bc91906158a6565b60405180910390f35b3480156106d157600080fd5b506106ec60048036036106e791908101906153fb565b6114e0565b6040516106ff979695949392919061597b565b60405180910390f35b34801561071457600080fd5b5061071d611569565b60405161072a91906158a6565b60405180910390f35b34801561073f57600080fd5b5061075a600480360361075591908101906152cc565b61156f565b6040516107679190615790565b60405180910390f35b60015481565b60003073ffffffffffffffffffffffffffffffffffffffff1631905090565b603660009054906101000a900473ffffffffffffffffffffffffffffffffffffffff1673ffffffffffffffffffffffffffffffffffffffff163373ffffffffffffffffffffffffffffffffffffffff1614610825576040517f08c379a000000000000000000000000000000000000000000000000000000000815260040161081c906157ab565b60405180910390fd5b600073ffffffffffffffffffffffffffffffffffffffff168173ffffffffffffffffffffffffffffffffffffffff16141561085f57600080fd5b80603660006101000a81548173ffffffffffffffffffffffffffffffffffffffff021916908373ffffffffffffffffffffffffffffffffffffffff16021790555050565b60055481565b6108b1614d31565b6039600084815260200190815260200160002060020160008381526020019081526020016000206040518060e001604052908160008201548152602001600182015481526020016002820160009054906101000a900473ffffffffffffffffffffffffffffffffffffffff1673ffffffffffffffffffffffffffffffffffffffff1673ffffffffffffffffffffffffffffffffffffffff168152602001600382015481526020016004820154815260200160058201548152602001600682015481525050905092915050565b60386020528060005260406000206000915090508060000154908060010160009054906101000a900473ffffffffffffffffffffffffffffffffffffffff16908060010160149054906101000a900460ff16908060020154908060030154908060040154908060050154908060060154908060070154908060080160009054906101000a900460ff169080600901549080600a015490508c565b603b6020528060005260406000206000915054906101000a900460ff1681565b60045481565b603660009054906101000a900473ffffffffffffffffffffffffffffffffffffffff1673ffffffffffffffffffffffffffffffffffffffff163373ffffffffffffffffffffffffffffffffffffffff1614610acd576040517f08c379a0000000000000000000000000000000000000000000000000000000008152600401610ac4906157ab565b60405180910390fd5b6000809054906101000a900460ff168015610af55750600060019054906101000a900460ff16155b610afe57600080fd5b60008060006101000a81548160ff021916908315150217905550565b603660009054906101000a900473ffffffffffffffffffffffffffffffffffffffff1673ffffffffffffffffffffffffffffffffffffffff163373ffffffffffffffffffffffffffffffffffffffff1614610baa576040517f08c379a0000000000000000000000000000000000000000000000000000000008152600401610ba1906157ab565b60405180910390fd5b6000809054906101000a900460ff16158015610bd35750600060019054906101000a900460ff16155b610bdc57600080fd5b60016000806101000a81548160ff021916908315150217905550565b60025481565b601281600c8110610c0b57fe5b016000915090505481565b600060606003604051908082528060200260200182016040528015610c4a5781602001602082028038833980820191505090505b50905060008090505b6003811015610c9257838160038110610c6857fe5b6020020151828281518110610c7957fe5b6020026020010181815250508080600101915050610c53565b50610ca786868684610ca261160b565b611aca565b915050949350505050565b603c6020528060005260406000206000915090505481565b603660009054906101000a900473ffffffffffffffffffffffffffffffffffffffff1673ffffffffffffffffffffffffffffffffffffffff163373ffffffffffffffffffffffffffffffffffffffff1614610d5a576040517f08c379a0000000000000000000000000000000000000000000000000000000008152600401610d51906157ab565b60405180910390fd5b6000809054906101000a900460ff168015610d825750600060019054906101000a900460ff16155b610d8b57600080fd5b6001600060016101000a81548160ff02191690831515021790555060003073ffffffffffffffffffffffffffffffffffffffff1631905060008090505b60378054905081101561110c57610ddd614d84565b6038600060378481548110610dee57fe5b9060005260206000200154815260200190815260200160002060405180610180016040529081600082015481526020016001820160009054906101000a900473ffffffffffffffffffffffffffffffffffffffff1673ffffffffffffffffffffffffffffffffffffffff1673ffffffffffffffffffffffffffffffffffffffff1681526020016001820160149054906101000a900460ff16600b811115610e9157fe5b600b811115610e9c57fe5b81526020016002820154815260200160038201548152602001600482015481526020016005820154815260200160068201548152602001600782015481526020016008820160009054906101000a900460ff1615151515815260200160098201548152602001600a820154815250509050610f15614e08565b6039600060378581548110610f2657fe5b906000526020600020015481526020019081526020016000206040518060e0016040529081600082015481526020016001820160009054906101000a900473ffffffffffffffffffffffffffffffffffffffff1673ffffffffffffffffffffffffffffffffffffffff1673ffffffffffffffffffffffffffffffffffffffff1681526020016001820160149054906101000a900460ff1660ff1660ff1681526020016001820160159054906101000a900460ff16151515158152602001600382015481526020016004820160009054906101000a900460ff161515151581526020016005820154815250509050600073ffffffffffffffffffffffffffffffffffffffff16826020015173ffffffffffffffffffffffffffffffffffffffff16141580156110875750806020015173ffffffffffffffffffffffffffffffffffffffff16826020015173ffffffffffffffffffffffffffffffffffffffff16145b801561109557508060600151155b156110fd576000826020015190508073ffffffffffffffffffffffffffffffffffffffff166108fc60055485606001518802816110ce57fe5b049081150290604051600060405180830381858888f193505050501580156110fa573d6000803e3d6000fd5b50505b50508080600101915050610dc8565b5050565b6000809054906101000a900460ff161580156111395750600060019054906101000a900460ff16155b61114257600080fd5b61114e8484848461156f565b61115757600080fd5b600033905060008260006001811061116b57fe5b60200201519050603b60008373ffffffffffffffffffffffffffffffffffffffff1673ffffffffffffffffffffffffffffffffffffffff16815260200190815260200160002060009054906101000a900460ff16156111c957600080fd5b6111d281611c4b565b156111dc57600080fd5b603a8290806001815401808255809150509060018203906000526020600020016000909192909190916101000a81548173ffffffffffffffffffffffffffffffffffffffff021916908373ffffffffffffffffffffffffffffffffffffffff160217905550506001603b60008473ffffffffffffffffffffffffffffffffffffffff1673ffffffffffffffffffffffffffffffffffffffff16815260200190815260200160002060006101000a81548160ff0219169083151502179055506112a781836161a8611c6e565b6001603c60008473ffffffffffffffffffffffffffffffffffffffff1673ffffffffffffffffffffffffffffffffffffffff168152602001908152602001600020819055507f5765df5ce7cf4175ef997923b4936159dcf3cea059434dab4643214d690a2b95828260405161131d929190615767565b60405180910390a1505050505050565b611335614d31565b611341858585856120d9565b90506113626039600083606001518152602001908152602001600020612248565b61136b816123a3565b6113788160800151611c4b565b61138d5761138c8160800151600080611c6e565b5b6113ac6039600083608001518152602001908152602001600020612248565b6113cc6039600083608001518152602001908152602001600020826124df565b6001603c60003373ffffffffffffffffffffffffffffffffffffffff1673ffffffffffffffffffffffffffffffffffffffff168152602001908152602001600020600082825401925050819055505050505050565b600681600c811061142e57fe5b016000915090505481565b601e81600c811061144657fe5b016000915090505481565b6000603a80549050905090565b602a81600c811061146b57fe5b016000915090505481565b6037818154811061148357fe5b906000526020600020016000915090505481565b603a81815481106114a457fe5b906000526020600020016000915054906101000a900473ffffffffffffffffffffffffffffffffffffffff1681565b6000603780549050905090565b60396020528060005260406000206000915090508060000154908060010160009054906101000a900473ffffffffffffffffffffffffffffffffffffffff16908060010160149054906101000a900460ff16908060010160159054906101000a900460ff16908060030154908060040160009054906101000a900460ff16908060050154905087565b60035481565b6000606060016040519080825280602002602001820160405280156115a35781602001602082028038833980820191505090505b50905060008090505b60018110156115eb578381600181106115c157fe5b60200201518282815181106115d257fe5b60200260200101818152505080806001019150506115ac565b50611600868686846115fb6126eb565b611aca565b915050949350505050565b611613614e65565b60405180604001604052807f045441d174ebd8bb5b322001fc85084e61b536f4825fa03f4e3cdae7f450184781526020017f038b80ecd2c1ff36db4e9ba5a47c70696a847c3bb9fb427b822da0279a778e408152508160000181905250604051806040016040528060405180604001604052807f170827c885650de3db66b53b25e148e615d3134a83ca47e301ecf58475f6cd2f81526020017f256d4b490ee5e3063a1a59dfce17b475afcdfdb50e14cb18f159a1c29a722215815250815260200160405180604001604052807f1252f28505745707106110e7de24b939946ffbf8fd234f7cfae30808faf325d181526020017f16d680b478cdf09b21390a961c6ee42ac779fb24fc1f154f89c37d30b5966f2d8152508152508160200181905250604051806040016040528060405180604001604052807f0bbfc170bb3988b884f0ce86ce7d89752f8b0ae82bc7cf26a4d58f235bd41fcd81526020017f0219ffcc4260bd1cdfb9da02954a800019d9a52d66acabfccdf8fb890bfb6a6c815250815260200160405180604001604052807f03aee55e9e384fb55651484f97a2efe963f34a53b544510c552bd8dfbc038fe581526020017f141266452c44433fcbd3196fd0c35d909cb72b47607f064eb7ecf32d0d22ac708152508152508160400181905250604051806040016040528060405180604001604052807f262264e5759fe63515417bbcc9d94ef2dcdd65dac1a1f2a15207074dc8110cdd81526020017f14bbc20993968a6c98e0b2f13e7e8a91ea68a4adf914a80a95b25ede1f66cc11815250815260200160405180604001604052807f0d334fe3513d2ba10d9fe04009c90aadc4813fca9c26108fc1ba744691e17a8581526020017f28d461e52f72d631ae9ac65497ec70dc86d51037ebc7e021329ea8bcbd89f7f1815250815250816060018190525060046040519080825280602002602001820160405280156118fa57816020015b6118e7614eac565b8152602001906001900390816118df5790505b50816080018190525060405180604001604052807f2bd8147a6be9a469693187ad09f879dcdb5e8abb85f37efa76ac842a3ebfacce81526020017f1bbb26c868466ad800d3fd1eb7c7e9d1b91f7a288fc9c054699b9d4d02a6166f815250816080015160008151811061196957fe5b602002602001018190525060405180604001604052807f21a0c9cb1bde3d35b64fc21889f86e39cab58b5306acbd46bb31a00b74fb117181526020017f036065557ad8e7e621525917b6950165e392613879d44be322454a906a0371cc81525081608001516001815181106119da57fe5b602002602001018190525060405180604001604052807f14c06f78055f15b95f77b2b365b7719ef10ce6ce5bf9f7724dd203a3e0e1cedf81526020017f14253033b713038d345de542a96ccc0a566943b55a34fdb95edd27a519a0dc328152508160800151600281518110611a4b57fe5b602002602001018190525060405180604001604052807f2744a47cb5358d3e27baf48e2095d00e83fb37cc733abeef6b2c0239c5ba3c2d81526020017f22ff50ed54ea684cff47beddb8fb9fd09e44983fefc4bafce0a39c3424e9e2548152508160800151600381518110611abc57fe5b602002602001018190525090565b6000611ad4614ec6565b604051806040016040528088600060028110611aec57fe5b6020020151815260200188600160028110611b0357fe5b602002015181525081600001819052506040518060400160405280604051806040016040528089600060028110611b3657fe5b6020020151600060028110611b4757fe5b6020020151815260200189600060028110611b5e57fe5b6020020151600160028110611b6f57fe5b60200201518152508152602001604051806040016040528089600160028110611b9457fe5b6020020151600060028110611ba557fe5b6020020151815260200189600160028110611bbc57fe5b6020020151600160028110611bcd57fe5b60200201518152508152508160200181905250604051806040016040528086600060028110611bf857fe5b6020020151815260200186600160028110611c0f57fe5b602002015181525081604001819052506000611c2c858386612ac8565b1415611c3c576001915050611c42565b60009150505b95945050505050565b600080603860008481526020019081526020016000206000015414159050919050565b611c7783612c83565b611c8057600080fd5b6000600143034090506000611c9485612cba565b9050611c9e614d84565b8581600001818152505084816020019073ffffffffffffffffffffffffffffffffffffffff16908173ffffffffffffffffffffffffffffffffffffffff1681525050818160400190600b811115611cf157fe5b9081600b811115611cfe57fe5b81525050611d38600683600b811115611d1357fe5b600c8110611d1d57fe5b015484600060208110611d2c57fe5b1a60f81b60f81c612e0b565b816060018181525050611d77601283600b811115611d5257fe5b600c8110611d5c57fe5b015484600160208110611d6b57fe5b1a60f81b60f81c612e0b565b816080018181525050611db6601e83600b811115611d9157fe5b600c8110611d9b57fe5b015484600260208110611daa57fe5b1a60f81b60f81c612e0b565b8160a0018181525050611df5602a83600b811115611dd057fe5b600c8110611dda57fe5b015484600360208110611de957fe5b1a60f81b60f81c612e0b565b8160c0018181525050838160e0018181525050428161010001818152505060008161012001901515908115158152505080603860008881526020019081526020016000206000820151816000015560208201518160010160006101000a81548173ffffffffffffffffffffffffffffffffffffffff021916908373ffffffffffffffffffffffffffffffffffffffff16021790555060408201518160010160146101000a81548160ff0219169083600b811115611eae57fe5b0217905550606082015181600201556080820151816003015560a0820151816004015560c0820151816005015560e0820151816006015561010082015181600701556101208201518160080160006101000a81548160ff021916908315150217905550610140820151816009015561016082015181600a0155905050611f32614e08565b8681600001818152505085816020019073ffffffffffffffffffffffffffffffffffffffff16908173ffffffffffffffffffffffffffffffffffffffff16815250506001816040019060ff16908160ff1681525050600081606001901515908115158152505060018160a0019015159081151581525050838160c001818152505080603960008981526020019081526020016000206000820151816000015560208201518160010160006101000a81548173ffffffffffffffffffffffffffffffffffffffff021916908373ffffffffffffffffffffffffffffffffffffffff16021790555060408201518160010160146101000a81548160ff021916908360ff16021790555060608201518160010160156101000a81548160ff0219169083151502179055506080820151816003015560a08201518160040160006101000a81548160ff02191690831515021790555060c082015181600501559050506037879080600181540180825580915050906001820390600052602060002001600090919290919091505550816060015160056000828254019250508190555050505050505050565b6120e1614d31565b6000809054906101000a900460ff1615801561210a5750600060019054906101000a900460ff16155b61211357600080fd5b61211b614ef9565b60008090505b600381101561215d5783816004811061213657fe5b602002015182826003811061214757fe5b6020020181815250508080600101915050612121565b5061216a86868684612e2a565b4282600001818152505060038360026004811061218357fe5b60200201518161218f57fe5b04420182602001818152505033826040019073ffffffffffffffffffffffffffffffffffffffff16908173ffffffffffffffffffffffffffffffffffffffff1681525050826000600481106121e057fe5b6020020151826060018181525050826001600481106121fb57fe5b60200201518260800181815250508260026004811061221657fe5b60200201518260a00181815250508260036004811061223157fe5b60200201518260c001818152505050949350505050565b5b6001156123a05760008061225c83612e91565b8093508192505050806122705750506123a0565b61232a8360020160008481526020019081526020016000206040518060e001604052908160008201548152602001600182015481526020016002820160009054906101000a900473ffffffffffffffffffffffffffffffffffffffff1673ffffffffffffffffffffffffffffffffffffffff1673ffffffffffffffffffffffffffffffffffffffff168152602001600382015481526020016004820154815260200160058201548152602001600682015481525050612f3a565b82600201600083815260200190815260200160002060008082016000905560018201600090556002820160006101000a81549073ffffffffffffffffffffffffffffffffffffffff0219169055600382016000905560048201600090556005820160009055600682016000905550505050612249565b50565b603b6000826040015173ffffffffffffffffffffffffffffffffffffffff1673ffffffffffffffffffffffffffffffffffffffff16815260200190815260200160002060009054906101000a900460ff166123fd57600080fd5b806040015173ffffffffffffffffffffffffffffffffffffffff166124258260600151613291565b73ffffffffffffffffffffffffffffffffffffffff161461244557600080fd5b603960008260600151815260200190815260200160002060010160159054906101000a900460ff161561247757600080fd5b6124858160600151426132e6565b8060c0015160386000836060015181526020019081526020016000206006015410156124b057600080fd5b8060c0015160386000836060015181526020019081526020016000206006016000828254039250508190555050565b60008090505b82600301548110156125f85760008360020160008381526020019081526020016000206001015414156125eb5781836002016000838152602001908152602001600020600082015181600001556020820151816001015560408201518160020160006101000a81548173ffffffffffffffffffffffffffffffffffffffff021916908373ffffffffffffffffffffffffffffffffffffffff160217905550606082015181600301556080820151816004015560a0820151816005015560c082015181600601559050507f4cce6955136bebfe8425059d9a93057d9c80b2a1e0693848b818c266a6ebb3ae826040516125dd919061588b565b60405180910390a1506126e7565b80806001019150506124e5565b50600182600301600082825401925050819055508082600201600060018560030154038152602001908152602001600020600082015181600001556020820151816001015560408201518160020160006101000a81548173ffffffffffffffffffffffffffffffffffffffff021916908373ffffffffffffffffffffffffffffffffffffffff160217905550606082015181600301556080820151816004015560a0820151816005015560c082015181600601559050507f4cce6955136bebfe8425059d9a93057d9c80b2a1e0693848b818c266a6ebb3ae816040516126de919061588b565b60405180910390a15b5050565b6126f3614e65565b60405180604001604052807f2d3663326fb9e1ee03af432723fcf7c2617d55ae3bf3df9e89ae11378517c5d281526020017f1de6bb3272ca7b6aec42b13bb2275950a2ca5a9f26b14f1fb4e8ee23f03160c98152508160000181905250604051806040016040528060405180604001604052807f2664eec27fe61ee6032d88f8e257d1d9b0e46795a3310c085ae20694a8d0799b81526020017f2225276c4d599be630bc5b508c0c35accfc8ffb4bea3c7124e06f3b0db8c1b02815250815260200160405180604001604052807f16416d8c0fafb41e7c0708dcfaa8ec734fc1b175152150c4ec2f880ce0e4581481526020017f2abed30551a003a8b5084e99f15a88caab82b7bd461e4933f662abfca75eda588152508152508160200181905250604051806040016040528060405180604001604052807f259ae23d8005a48841859705860384c291bfc0a77ee4fc9e0f01226b17d313e281526020017f2e59ac393796a41163fef34f017f487beb839eadeecde212cb60d48e3e497a3c815250815260200160405180604001604052807f27f7d2d18c6c4aa1d860e8b4c5aa758dca9c265ed14b97af90febd492f66c2df81526020017f069b89685da790d382cda1e15210b4b647bae186ff7cbe76adbb1280a698cd648152508152508160400181905250604051806040016040528060405180604001604052807f25fa6eea0a789e250fc2379abdbddd6ff1e388673793da63f854300c5440bf9181526020017f1d56418104202dfccdd1a2b84dc0705296f11502fc2727919d7f176421450b49815250815260200160405180604001604052807f1f8a17e7108b369c5ef7d1708f50effec2bdb407b94d2d650fd01416ceaf0a9b81526020017f103bc795f0bd5dcb14c0a9d1c0e336a85faee5c3e643d1f4f9c410675ce5535b815250815250816060018190525060026040519080825280602002602001820160405280156129da57816020015b6129c7614eac565b8152602001906001900390816129bf5790505b50816080018190525060405180604001604052807f181cad344f3dfbce16a0721bc9572366c7104b4144eff02265f76d90688b608b81526020017f22a2c6f6d54bf4c23a506764cebc6e4896cb248fdb3fa8c9e20c55c569cd86c18152508160800151600081518110612a4957fe5b602002602001018190525060405180604001604052807f2c206b8d8bf460170ef31aa3bcc148f7ecc9df5acf2d2337cf046d040fa63d2d81526020017f130f3e75d090ea7c0d2f7ca8bf9f73bad8c7785f1302a1988e28a64729720fc48152508160800151600181518110612aba57fe5b602002602001018190525090565b6000807f30644e72e131a029b85045b68181585d2833e84879b9709143e1f593f00000019050826080015151600186510114612b39576040517f08c379a0000000000000000000000000000000000000000000000000000000008152600401612b30906157cb565b60405180910390fd5b612b41614f1b565b6040518060400160405280600081526020016000815250905060008090505b8651811015612c0d5782878281518110612b7657fe5b602002602001015110612bbe576040517f08c379a0000000000000000000000000000000000000000000000000000000008152600401612bb59061580b565b60405180910390fd5b612bfe82612bf987608001516001850181518110612bd857fe5b60200260200101518a8581518110612bec57fe5b602002602001015161330f565b6133d7565b91508080600101915050612b60565b50612c30818560800151600081518110612c2357fe5b60200260200101516133d7565b9050612c66612c4286600001516134be565b8660200151866000015187602001518589604001518b604001518b60600151613558565b612c7557600192505050612c7c565b6000925050505b9392505050565b60006003547f30644e72e131a029b85045b68181585d2833e84879b9709143e1f593f000000181612cb057fe5b0482109050919050565b60006060612cc7836136bc565b9050600080600490505b6007811015612d13578060060360080260020a838281518110612cf057fe5b602001015160f81c60f81b60f81c60ff1602820191508080600101915050612cd1565b506008811015612d2857600b92505050612e06565b6040811015612d3c57600a92505050612e06565b610200811015612d5157600992505050612e06565b610800811015612d6657600892505050612e06565b612000811015612d7b57600792505050612e06565b618000811015612d9057600692505050612e06565b62020000811015612da657600592505050612e06565b62080000811015612dbc57600492505050612e06565b62200000811015612dd257600392505050612e06565b62800000811015612de857600292505050612e06565b6301000000811015612dff57600192505050612e06565b6000925050505b919050565b60006064612e1883613700565b840281612e2157fe5b04905092915050565b612e32614ef9565b60008090505b6003811015612e7457828160038110612e4d57fe5b6020020151828260038110612e5e57fe5b6020020181815250508080600101915050612e38565b50612e8185858584610c16565b612e8a57600080fd5b5050505050565b60008060004290506000809050600080905060008090505b8660030154811015612f2b5760008760020160008381526020019081526020016000206001015414158015612ef65750838760020160008381526020019081526020016000206001015411155b15612f1e57866002016000828152602001908152602001600020600101549350809250600191505b8080600101915050612ea9565b50808294509450505050915091565b603960008260800151815260200190815260200160002060010160159054906101000a900460ff1615612f6c57600080fd5b612f7e816080015182602001516132e6565b612f8b8160800151611c4b565b612fa457612fa3816080015182604001516000611c6e565b5b60006064603860008460600151815260200190815260200160002060050154612ff08460c001516038600087606001518152602001908152602001600020600401548660a00151613720565b0281612ff857fe5b0490506130088260800151613755565b61310c578160400151603860008460800151815260200190815260200160002060010160006101000a81548173ffffffffffffffffffffffffffffffffffffffff021916908373ffffffffffffffffffffffffffffffffffffffff160217905550806038600084608001518152602001908152602001600020600601600082825401925050819055506038600083608001518152602001908152602001600020600201546038600084608001518152602001908152602001600020600601541115613107576038600083608001518152602001908152602001600020600201546038600084608001518152602001908152602001600020600601819055505b61328d565b816040015173ffffffffffffffffffffffffffffffffffffffff166131348360800151613291565b73ffffffffffffffffffffffffffffffffffffffff1614156131a357603860008360600151815260200190815260200160002060050154606482028161317657fe5b0460386000846080015181526020019081526020016000206006016000828254019250508190555061328c565b8060386000846080015181526020019081526020016000206006015411156131f2578060386000846080015181526020019081526020016000206006016000828254039250508190555061328b565b8160400151603860008460800151815260200190815260200160002060010160006101000a81548173ffffffffffffffffffffffffffffffffffffffff021916908373ffffffffffffffffffffffffffffffffffffffff16021790555060386000836080015181526020019081526020016000206006015481036038600084608001518152602001908152602001600020600601819055505b5b5b5050565b600061329c82613755565b6132a75760006132df565b6038600083815260200190815260200160002060010160009054906101000a900473ffffffffffffffffffffffffffffffffffffffff165b9050919050565b6132f082826137e6565b8060386000848152602001908152602001600020600701819055505050565b613317614f1b565b61331f614ef9565b83600001518160006003811061333157fe5b60200201818152505083602001518160016003811061334c57fe5b602002018181525050828160026003811061336357fe5b602002018181525050600060608360808460076107d05a03fa9050806000811461338c5761338e565bfe5b50806133cf576040517f08c379a00000000000000000000000000000000000000000000000000000000081526004016133c6906157eb565b60405180910390fd5b505092915050565b6133df614f1b565b6133e7614f35565b8360000151816000600481106133f957fe5b60200201818152505083602001518160016004811061341457fe5b60200201818152505082600001518160026004811061342f57fe5b60200201818152505082602001518160036004811061344a57fe5b602002018181525050600060608360c08460066107d05a03fa9050806000811461347357613475565bfe5b50806134b6576040517f08c379a00000000000000000000000000000000000000000000000000000000081526004016134ad9061584b565b60405180910390fd5b505092915050565b6134c6614f1b565b60007f30644e72e131a029b85045b68181585d97816a916871ca8d3c208c16d87cfd47905060008360000151148015613503575060008360200151145b15613527576040518060400160405280600081526020016000815250915050613553565b6040518060400160405280846000015181526020018285602001518161354957fe5b0683038152509150505b919050565b60006060600460405190808252806020026020018201604052801561359757816020015b613584614eac565b81526020019060019003908161357c5790505b509050606060046040519080825280602002602001820160405280156135d757816020015b6135c4614f57565b8152602001906001900390816135bc5790505b5090508a826000815181106135e857fe5b6020026020010181905250888260018151811061360157fe5b6020026020010181905250868260028151811061361a57fe5b6020026020010181905250848260038151811061363357fe5b6020026020010181905250898160008151811061364c57fe5b6020026020010181905250878160018151811061366557fe5b6020026020010181905250858160028151811061367e57fe5b6020026020010181905250838160038151811061369757fe5b60200260200101819052506136ac82826138fb565b9250505098975050505050505050565b606060206040519080825280601f01601f1916602001820160405280156136f25781602001600182028038833980820191505090505b509050816020820152919050565b6000601060208360ff168161371157fe5b060360640160ff169050919050565b6000828210156137325783905061374e565b600061373e8484613bba565b905061374a8186613c22565b9150505b9392505050565b60008073ffffffffffffffffffffffffffffffffffffffff166038600084815260200190815260200160002060010160009054906101000a900473ffffffffffffffffffffffffffffffffffffffff1673ffffffffffffffffffffffffffffffffffffffff161415806137df57506000603860008481526020019081526020016000206006015414155b9050919050565b6137ef82613755565b6137f8576138f7565b600060386000848152602001908152602001600020905060008160060154141561382257506138f7565b600081600701548303905060006138396001613cdd565b90506000828460030154600402029050600061386161385c838760020154613bba565b613d00565b9050600061386e82613d40565b9050600061388487600201548860060154613bba565b905060006138928287613db9565b905060006138a08483613e20565b905060006138ae8883613e8b565b905060006138bf8b60020154613cdd565b905060006138d56138d08385613ef2565b613f75565b90508067ffffffffffffffff168c600601819055505050505050505050505050505b5050565b60008151835114613941576040517f08c379a00000000000000000000000000000000000000000000000000000000081526004016139389061582b565b60405180910390fd5b60008351905060006006820290506060816040519080825280602002602001820160405280156139805781602001602082028038833980820191505090505b50905060008090505b83811015613b265786818151811061399d57fe5b6020026020010151600001518260006006840201815181106139bb57fe5b6020026020010181815250508681815181106139d357fe5b6020026020010151602001518260016006840201815181106139f157fe5b602002602001018181525050858181518110613a0957fe5b602002602001015160000151600060028110613a2157fe5b6020020151826002600684020181518110613a3857fe5b602002602001018181525050858181518110613a5057fe5b602002602001015160000151600160028110613a6857fe5b6020020151826003600684020181518110613a7f57fe5b602002602001018181525050858181518110613a9757fe5b602002602001015160200151600060028110613aaf57fe5b6020020151826004600684020181518110613ac657fe5b602002602001018181525050858181518110613ade57fe5b602002602001015160200151600160028110613af657fe5b6020020151826005600684020181518110613b0d57fe5b6020026020010181815250508080600101915050613989565b50613b2f614f7d565b6000602082602086026020860160086107d05a03fa90508060008114613b5457613b56565bfe5b5080613b97576040517f08c379a0000000000000000000000000000000000000000000000000000000008152600401613b8e9061586b565b60405180910390fd5b600082600060018110613ba657fe5b602002015114159550505050505092915050565b600080821415613bc957600080fd5b6000613bd58484613f96565b90506f7fffffffffffffffffffffffffffffff6fffffffffffffffffffffffffffffffff16816fffffffffffffffffffffffffffffffff161115613c1857600080fd5b8091505092915050565b600080821415613c355760009050613cd7565b600083600f0b1215613c4657600080fd5b600060406fffffffffffffffffffffffffffffffff841685600f0b02901c90506000608084901c85600f0b02905077ffffffffffffffffffffffffffffffffffffffffffffffff811115613c9957600080fd5b604081901b9050817fffffffffffffffffffffffffffffffffffffffffffffffffffffffffffffffff03811115613ccf57600080fd5b818101925050505b92915050565b6000677fffffffffffffff821115613cf457600080fd5b604082901b9050919050565b60007fffffffffffffffffffffffffffffffff80000000000000000000000000000000600f0b82600f0b1415613d3557600080fd5b816000039050919050565b60006840000000000000000082600f0b12613d5a57600080fd5b7fffffffffffffffffffffffffffffffffffffffffffffffc0000000000000000082600f0b1215613d8e5760009050613db4565b613db16080700171547652b82fe1777d0ffda0d23a7d1284600f0b02901d614126565b90505b919050565b60008082600f0b84600f0b0390507fffffffffffffffffffffffffffffffff80000000000000000000000000000000600f0b8112158015613e0d57506f7fffffffffffffffffffffffffffffff600f0b8113155b613e1657600080fd5b8091505092915050565b600080604083600f0b85600f0b02901d90507fffffffffffffffffffffffffffffffff80000000000000000000000000000000600f0b8112158015613e7857506f7fffffffffffffffffffffffffffffff600f0b8113155b613e8157600080fd5b8091505092915050565b60008082600f0b84600f0b0190507fffffffffffffffffffffffffffffffff80000000000000000000000000000000600f0b8112158015613edf57506f7fffffffffffffffffffffffffffffff600f0b8113155b613ee857600080fd5b8091505092915050565b60008082600f0b1415613f0457600080fd5b600082600f0b604085600f0b901b81613f1957fe5b0590507fffffffffffffffffffffffffffffffff80000000000000000000000000000000600f0b8112158015613f6257506f7fffffffffffffffffffffffffffffff600f0b8113155b613f6b57600080fd5b8091505092915050565b60008082600f0b1215613f8757600080fd5b604082600f0b901d9050919050565b600080821415613fa557600080fd5b600077ffffffffffffffffffffffffffffffffffffffffffffffff8411613fdb5782604085901b81613fd357fe5b0490506140ff565b600060c09050600060ff90505b8082101561403d5760006001828401901c905060008188901c9050600081141561401757600182039250614036565b600181111561402b57600182019350614035565b819350505061403d565b5b5050613fe8565b600160bf830360018703901c018260ff0387901b8161405857fe5b0492506fffffffffffffffffffffffffffffffff83111561407857600080fd5b6000608086901c8402905060006fffffffffffffffffffffffffffffffff871685029050600060c089901c9050600060408a901b9050828110156140bd576001820391505b8281039050608084901b9250828110156140d8576001820391505b8281039050608084901c82146140ea57fe5b8881816140f357fe5b04870196505050505050505b6fffffffffffffffffffffffffffffffff81111561411c57600080fd5b8091505092915050565b60006840000000000000000082600f0b1261414057600080fd5b7fffffffffffffffffffffffffffffffffffffffffffffffc0000000000000000082600f0b12156141745760009050614d2c565b60006f80000000000000000000000000000000905060006780000000000000008416600f0b13156141ba57608070016a09e667f3bcc908b2fb1366ea957d3e8202901c90505b60006740000000000000008416600f0b13156141eb5760807001306fe0a31b7152de8d5a46305c85edec8202901c90505b60006720000000000000008416600f0b131561421c5760807001172b83c7d517adcdf7c8c50eb14a791f8202901c90505b60006710000000000000008416600f0b131561424d57608070010b5586cf9890f6298b92b71842a983638202901c90505b60006708000000000000008416600f0b131561427e5760807001059b0d31585743ae7c548eb68ca417fd8202901c90505b60006704000000000000008416600f0b13156142af576080700102c9a3e778060ee6f7caca4f7a29bde88202901c90505b60006702000000000000008416600f0b13156142e057608070010163da9fb33356d84a66ae336dcdfa3f8202901c90505b60006701000000000000008416600f0b1315614311576080700100b1afa5abcbed6129ab13ec11dc95438202901c90505b600066800000000000008416600f0b131561434157608070010058c86da1c09ea1ff19d294cf2f679b8202901c90505b600066400000000000008416600f0b13156143715760807001002c605e2e8cec506d21bfc89a23a00f8202901c90505b600066200000000000008416600f0b13156143a1576080700100162f3904051fa128bca9c55c31e5df8202901c90505b600066100000000000008416600f0b13156143d15760807001000b175effdc76ba38e31671ca9397258202901c90505b600066080000000000008416600f0b1315614401576080700100058ba01fb9f96d6cacd4b180917c3d8202901c90505b600066040000000000008416600f0b131561443157608070010002c5cc37da9491d0985c348c68e7b38202901c90505b600066020000000000008416600f0b13156144615760807001000162e525ee054754457d59952920268202901c90505b600066010000000000008416600f0b131561449157608070010000b17255775c040618bf4a4ade83fc8202901c90505b6000658000000000008416600f0b13156144c05760807001000058b91b5bc9ae2eed81e9b7d4cfab8202901c90505b6000654000000000008416600f0b13156144ef576080700100002c5c89d5ec6ca4d7c8acc017b7c98202901c90505b6000652000000000008416600f0b131561451e57608070010000162e43f4f831060e02d839a9d16d8202901c90505b6000651000000000008416600f0b131561454d576080700100000b1721bcfc99d9f890ea069117638202901c90505b6000650800000000008416600f0b131561457c57608070010000058b90cf1e6d97f9ca14dbcc16288202901c90505b6000650400000000008416600f0b13156145ab5760807001000002c5c863b73f016468f6bac5ca2b8202901c90505b6000650200000000008416600f0b13156145da576080700100000162e430e5a18f6119e3c02282a58202901c90505b6000650100000000008416600f0b13156146095760807001000000b1721835514b86e6d96efd1bfe8202901c90505b60006480000000008416600f0b1315614637576080700100000058b90c0b48c6be5df846c5b2ef8202901c90505b60006440000000008416600f0b131561466557608070010000002c5c8601cc6b9e94213c72737a8202901c90505b60006420000000008416600f0b13156146935760807001000000162e42fff037df38aa2b219f068202901c90505b60006410000000008416600f0b13156146c157608070010000000b17217fba9c739aa5819f44f98202901c90505b60006408000000008416600f0b13156146ef5760807001000000058b90bfcdee5acd3c1cedc8238202901c90505b60006404000000008416600f0b131561471d576080700100000002c5c85fe31f35a6a30da1be508202901c90505b60006402000000008416600f0b131561474b57608070010000000162e42ff0999ce3541b9fffcf8202901c90505b60006401000000008416600f0b1315614779576080700100000000b17217f80f4ef5aadda455548202901c90505b600063800000008416600f0b13156147a657608070010000000058b90bfbf8479bd5a81b51ad8202901c90505b600063400000008416600f0b13156147d35760807001000000002c5c85fdf84bd62ae30a74cc8202901c90505b600063200000008416600f0b1315614800576080700100000000162e42fefb2fed257559bdaa8202901c90505b600063100000008416600f0b131561482d5760807001000000000b17217f7d5a7716bba4a9ae8202901c90505b600063080000008416600f0b131561485a576080700100000000058b90bfbe9ddbac5e109cce8202901c90505b600063040000008416600f0b131561488757608070010000000002c5c85fdf4b15de6f17eb0d8202901c90505b600063020000008416600f0b13156148b45760807001000000000162e42fefa494f1478fde058202901c90505b600063010000008416600f0b13156148e157608070010000000000b17217f7d20cf927c8e94c8202901c90505b6000628000008416600f0b131561490d5760807001000000000058b90bfbe8f71cb4e4b33d8202901c90505b6000624000008416600f0b1315614939576080700100000000002c5c85fdf477b662b269458202901c90505b6000622000008416600f0b131561496557608070010000000000162e42fefa3ae53369388c8202901c90505b6000621000008416600f0b1315614991576080700100000000000b17217f7d1d351a389d408202901c90505b6000620800008416600f0b13156149bd57608070010000000000058b90bfbe8e8b2d3d4ede8202901c90505b6000620400008416600f0b13156149e95760807001000000000002c5c85fdf4741bea6e77e8202901c90505b6000620200008416600f0b1315614a15576080700100000000000162e42fefa39fe95583c28202901c90505b6000620100008416600f0b1315614a415760807001000000000000b17217f7d1cfb72b45e18202901c90505b60006180008416600f0b1315614a6c576080700100000000000058b90bfbe8e7cc35c3f08202901c90505b60006140008416600f0b1315614a9757608070010000000000002c5c85fdf473e242ea388202901c90505b60006120008416600f0b1315614ac25760807001000000000000162e42fefa39f02b772c8202901c90505b60006110008416600f0b1315614aed57608070010000000000000b17217f7d1cf7d83c1a8202901c90505b60006108008416600f0b1315614b185760807001000000000000058b90bfbe8e7bdcbe2e8202901c90505b60006104008416600f0b1315614b43576080700100000000000002c5c85fdf473dea871f8202901c90505b60006102008416600f0b1315614b6e57608070010000000000000162e42fefa39ef44d918202901c90505b60006101008416600f0b1315614b99576080700100000000000000b17217f7d1cf79e9498202901c90505b600060808416600f0b1315614bc357608070010000000000000058b90bfbe8e7bce5448202901c90505b600060408416600f0b1315614bed5760807001000000000000002c5c85fdf473de6eca8202901c90505b600060208416600f0b1315614c17576080700100000000000000162e42fefa39ef366f8202901c90505b600060108416600f0b1315614c415760807001000000000000000b17217f7d1cf79afa8202901c90505b600060088416600f0b1315614c6b576080700100000000000000058b90bfbe8e7bcd6d8202901c90505b600060048416600f0b1315614c9557608070010000000000000002c5c85fdf473de6b28202901c90505b600060028416600f0b1315614cbf5760807001000000000000000162e42fefa39ef3588202901c90505b600060018416600f0b1315614ce957608070010000000000000000b17217f7d1cf79ab8202901c90505b604083600f0b901d603f03600f0b816000821215614d0357fe5b901c90506f7fffffffffffffffffffffffffffffff600f0b811115614d2757600080fd5b809150505b919050565b6040518060e001604052806000815260200160008152602001600073ffffffffffffffffffffffffffffffffffffffff168152602001600081526020016000815260200160008152602001600081525090565b60405180610180016040528060008152602001600073ffffffffffffffffffffffffffffffffffffffff1681526020016000600b811115614dc157fe5b815260200160008152602001600081526020016000815260200160008152602001600081526020016000815260200160001515815260200160008152602001600081525090565b6040518060e0016040528060008152602001600073ffffffffffffffffffffffffffffffffffffffff168152602001600060ff16815260200160001515815260200160008152602001600015158152602001600080191681525090565b6040518060a00160405280614e78614eac565b8152602001614e85614f57565b8152602001614e92614f57565b8152602001614e9f614f57565b8152602001606081525090565b604051806040016040528060008152602001600081525090565b6040518060600160405280614ed9614eac565b8152602001614ee6614f57565b8152602001614ef3614eac565b81525090565b6040518060600160405280600390602082028038833980820191505090505090565b604051806040016040528060008152602001600081525090565b6040518060800160405280600490602082028038833980820191505090505090565b6040518060400160405280614f6a614f9f565b8152602001614f77614f9f565b81525090565b6040518060200160405280600190602082028038833980820191505090505090565b6040518060400160405280600290602082028038833980820191505090505090565b600081359050614fd081615b85565b92915050565b600082601f830112614fe757600080fd5b6002614ffa614ff582615a17565b6159ea565b9150818385604084028201111561501057600080fd5b60005b83811015615040578161502688826150be565b845260208401935060408301925050600181019050615013565b5050505092915050565b600082601f83011261505b57600080fd5b600161506e61506982615a39565b6159ea565b9150818385602084028201111561508457600080fd5b60005b838110156150b4578161509a888261528e565b845260208401935060208301925050600181019050615087565b5050505092915050565b600082601f8301126150cf57600080fd5b60026150e26150dd82615a5b565b6159ea565b915081838560208402820111156150f857600080fd5b60005b83811015615128578161510e888261528e565b8452602084019350602083019250506001810190506150fb565b5050505092915050565b600082601f83011261514357600080fd5b600261515661515182615a7d565b6159ea565b9150818385602084028201111561516c57600080fd5b60005b8381101561519c5781615182888261528e565b84526020840193506020830192505060018101905061516f565b5050505092915050565b600082601f8301126151b757600080fd5b60036151ca6151c582615a9f565b6159ea565b915081838560208402820111156151e057600080fd5b60005b8381101561521057816151f6888261528e565b8452602084019350602083019250506001810190506151e3565b5050505092915050565b600082601f83011261522b57600080fd5b600461523e61523982615ac1565b6159ea565b9150818385602084028201111561525457600080fd5b60005b83811015615284578161526a888261528e565b845260208401935060208301925050600181019050615257565b5050505092915050565b60008135905061529d81615b9c565b92915050565b6000602082840312156152b557600080fd5b60006152c384828501614fc1565b91505092915050565b60008060008061012085870312156152e357600080fd5b60006152f187828801615132565b945050604061530287828801614fd6565b93505060c061531387828801615132565b9250506101006153258782880161504a565b91505092959194509250565b600080600080610160858703121561534857600080fd5b600061535687828801615132565b945050604061536787828801614fd6565b93505060c061537887828801615132565b92505061010061538a878288016151a6565b91505092959194509250565b60008060008061018085870312156153ad57600080fd5b60006153bb87828801615132565b94505060406153cc87828801614fd6565b93505060c06153dd87828801615132565b9250506101006153ef8782880161521a565b91505092959194509250565b60006020828403121561540d57600080fd5b600061541b8482850161528e565b91505092915050565b6000806040838503121561543757600080fd5b60006154458582860161528e565b92505060206154568582860161528e565b9150509250929050565b61546981615af4565b82525050565b61547881615af4565b82525050565b61548781615b06565b82525050565b61549681615b12565b82525050565b6154a581615b66565b82525050565b60006154b8602283615ae3565b91507f4f6e6c79206f776e65722063616e2063616c6c20746869732066756e6374696f60008301527f6e2e0000000000000000000000000000000000000000000000000000000000006020830152604082019050919050565b600061551e601283615ae3565b91507f76657269666965722d6261642d696e70757400000000000000000000000000006000830152602082019050919050565b600061555e601283615ae3565b91507f70616972696e672d6d756c2d6661696c656400000000000000000000000000006000830152602082019050919050565b600061559e601f83615ae3565b91507f76657269666965722d6774652d736e61726b2d7363616c61722d6669656c64006000830152602082019050919050565b60006155de601683615ae3565b91507f70616972696e672d6c656e677468732d6661696c6564000000000000000000006000830152602082019050919050565b600061561e601283615ae3565b91507f70616972696e672d6164642d6661696c656400000000000000000000000000006000830152602082019050919050565b600061565e601583615ae3565b91507f70616972696e672d6f70636f64652d6661696c656400000000000000000000006000830152602082019050919050565b60e0820160008201516156a7600085018261571f565b5060208201516156ba602085018261571f565b5060408201516156cd6040850182615460565b5060608201516156e0606085018261571f565b5060808201516156f3608085018261571f565b5060a082015161570660a085018261571f565b5060c082015161571960c085018261571f565b50505050565b61572881615b4f565b82525050565b61573781615b4f565b82525050565b61574681615b59565b82525050565b6000602082019050615761600083018461546f565b92915050565b600060408201905061577c600083018561546f565b615789602083018461572e565b9392505050565b60006020820190506157a5600083018461547e565b92915050565b600060208201905081810360008301526157c4816154ab565b9050919050565b600060208201905081810360008301526157e481615511565b9050919050565b6000602082019050818103600083015261580481615551565b9050919050565b6000602082019050818103600083015261582481615591565b9050919050565b60006020820190508181036000830152615844816155d1565b9050919050565b6000602082019050818103600083015261586481615611565b9050919050565b6000602082019050818103600083015261588481615651565b9050919050565b600060e0820190506158a06000830184615691565b92915050565b60006020820190506158bb600083018461572e565b92915050565b6000610180820190506158d7600083018f61572e565b6158e4602083018e61546f565b6158f1604083018d61549c565b6158fe606083018c61572e565b61590b608083018b61572e565b61591860a083018a61572e565b61592560c083018961572e565b61593260e083018861572e565b61594061010083018761572e565b61594e61012083018661547e565b61595c61014083018561572e565b61596a61016083018461572e565b9d9c50505050505050505050505050565b600060e082019050615990600083018a61572e565b61599d602083018961546f565b6159aa604083018861573d565b6159b7606083018761547e565b6159c4608083018661572e565b6159d160a083018561547e565b6159de60c083018461548d565b98975050505050505050565b6000604051905081810181811067ffffffffffffffff82111715615a0d57600080fd5b8060405250919050565b600067ffffffffffffffff821115615a2e57600080fd5b602082029050919050565b600067ffffffffffffffff821115615a5057600080fd5b602082029050919050565b600067ffffffffffffffff821115615a7257600080fd5b602082029050919050565b600067ffffffffffffffff821115615a9457600080fd5b602082029050919050565b600067ffffffffffffffff821115615ab657600080fd5b602082029050919050565b600067ffffffffffffffff821115615ad857600080fd5b602082029050919050565b600082825260208201905092915050565b6000615aff82615b2f565b9050919050565b60008115159050919050565b6000819050919050565b6000819050615b2a82615b78565b919050565b600073ffffffffffffffffffffffffffffffffffffffff82169050919050565b6000819050919050565b600060ff82169050919050565b6000615b7182615b1c565b9050919050565b600c8110615b8257fe5b50565b615b8e81615af4565b8114615b9957600080fd5b50565b615ba581615b4f565b8114615bb057600080fd5b5056fea365627a7a723158205eb181f4ad3fcc940c33a3a8087ee09e23bb430ba1153ee3c1c78be679f397f46c6578706572696d656e74616cf564736f6c634300050e0040",
  "source": "pragma solidity ^0.5.8;\npragma experimental ABIEncoderV2;\nimport \"./Verifier.sol\";\nimport \"./ABDKMath64x64.sol\";\n\ncontract DarkForestV1 is Verifier {\n    using ABDKMath64x64 for *;\n\n    uint8 constant VERSION = 1;\n    bool gamePaused = false;\n    bool gameEnded = false;\n\n    uint public xSize = 8192;\n    uint public ySize = 8192;\n    uint public planetRarity = 8192;\n    uint public nPlanetTypes = 12;\n    uint public totalCap = 0;\n    uint[12] public defaultCapacity = [0, 100000, 150000, 500000, 1500000, 5000000, 15000000, 40000000, 100000000, 200000000, 350000000, 500000000];\n    uint[12] public defaultGrowth = [0, 500, 667, 833, 1000, 1167, 1333, 1500, 1750, 2000, 2250, 2500]; // max growth rate, achieved at 50% population, in milliPop per second\n    uint[12] public defaultHardiness = [0, 50, 75, 100, 125, 150, 175, 200, 225, 250, 275, 300];\n    uint[12] public defaultStalwartness = [0, 400, 350, 300, 250, 200, 175, 150, 125, 110, 100, 100];\n    address payable owner = 0x1aA18F5b595d87CC2C66d7b93367d8beabE203bB;\n\n    uint256 constant LOCATION_ID_UB = 21888242871839275222246405745257275088548364400416034343698204186575808495617;\n\n    modifier onlyOwner {\n        require(\n            msg.sender == owner,\n            \"Only owner can call this function.\"\n        );\n        _;\n    }\n\n    enum PlanetType {\n        None,\n        LittleAsteroid,\n        BigAsteroid,\n        BrownDwarf,\n        RedDwarf,\n        WhiteDwarf,\n        YellowStar,\n        BlueStar,\n        SubGiant,\n        Giant,\n        SuperGiant,\n        HyperGiant\n    }\n\n    struct Planet {\n        uint locationId;\n        address owner;\n\n        PlanetType planetType;\n        uint capacity;\n        uint growth;\n        uint hardiness;\n        uint stalwartness;\n        uint population;\n        uint lastUpdated;\n        bool coordinatesRevealed;\n        uint x;\n        uint y;\n    }\n\n    struct PlanetMetadata {\n        uint locationId;\n        address owner;\n        uint8 version;\n        bool destroyed;\n        mapping(uint => QueuedArrival) pending;\n        uint pendingCount;\n        bool exists;\n        bytes32 entropySource;\n    }\n\n    struct QueuedArrival {\n        uint departureTime;\n        uint arrivalTime;\n        address player;\n        uint oldLoc;\n        uint newLoc;\n        uint maxDist;\n        uint shipsMoved;\n    }\n\n    event PlayerInitialized(address player, uint loc);\n    event PlanetDestroyed(uint loc);\n    event ArrivalQueued(QueuedArrival arrival);\n\n    uint[] public planetIds;\n    mapping (uint => Planet) public planets;\n    mapping (uint => PlanetMetadata) public planetMetadatas;\n    address[] public playerIds;\n    mapping (address => bool) public playerInitialized;\n    // TODO: how to query all planets owned by player?\n    mapping (address => uint) public nPlayerTransactions;\n\n    function toBytes(uint256 x) private pure returns (bytes memory b) {\n        b = new bytes(32);\n        assembly { mstore(add(b, 32), x) }\n    }\n\n    // (1/x)y distribution. Not ready yet.\n    // function getMultiplier(uint8 _rand) private pure returns (int128) {\n    //     return ABDKMath64x64.divu(100, (uint256(_rand) + 10));\n    // }\n\n    // Uniform distribution\n    function getMultiplierInPercent(uint8 _randByte) private pure returns (uint) {\n        return 100 + ((_randByte % 32) - 16);\n    }\n\n    function perturbValue(uint _baseVal, uint8 _randByte) private pure returns (uint) {\n        //return ABDKMath64x64.mulu(getMultiplier(_rand), _baseVal);\n        return _baseVal * getMultiplierInPercent(_randByte) / 100;\n    }\n\n    function getPlanetType(uint _loc) private pure returns (PlanetType) {\n        bytes memory b = toBytes(_loc);\n        uint planetTypeUInt;\n        for (uint i = 4; i < 7; i++) {\n            planetTypeUInt = planetTypeUInt + uint(uint8(b[i])) * (2**(8 * (6 - i)));\n        }\n        if (planetTypeUInt < 8) {\n            return PlanetType.HyperGiant;\n        } else if (planetTypeUInt < 64) {\n            return PlanetType.SuperGiant;\n        } else if (planetTypeUInt < 512) {\n            return PlanetType.Giant;\n        } else if (planetTypeUInt < 2048) {\n            return PlanetType.SubGiant;\n        } else if (planetTypeUInt < 8192) {\n            return PlanetType.BlueStar;\n        } else if (planetTypeUInt < 32768) {\n            return PlanetType.YellowStar;\n        } else if (planetTypeUInt < 131072) {\n            return PlanetType.WhiteDwarf;\n        } else if (planetTypeUInt < 524288) {\n            return PlanetType.RedDwarf;\n        } else if (planetTypeUInt < 2097152) {\n            return PlanetType.BrownDwarf;\n        } else if (planetTypeUInt < 8388608) {\n            return PlanetType.BigAsteroid;\n        } else if (planetTypeUInt < 16777216) {\n            return PlanetType.LittleAsteroid;\n        }\n        return PlanetType.None;\n    }\n\n    function planetIsInitialized(uint _loc) private view returns (bool) {\n        return !(planets[_loc].locationId == 0);\n    }\n\n    function planetIsOccupied(uint _loc) private view returns (bool) {\n        return !(planets[_loc].owner == address(0)) || planets[_loc].population != 0;\n    }\n\n    function ownerIfOccupiedElseZero(uint _loc) private view returns (address) {\n        return planetIsOccupied(_loc) ? planets[_loc].owner : address(0);\n    }\n\n    function getNPlanets() public view returns (uint) {\n        return planetIds.length;\n    }\n\n    function getNPlayers() public view returns (uint) {\n        return playerIds.length;\n    }\n\n    function getBalance() public view returns (uint) {\n        return (address(this)).balance;\n    }\n\n    function locationIdValid(uint _loc) private view returns (bool) {\n        return (_loc < (LOCATION_ID_UB / planetRarity));\n    }\n\n    function initializePlanet(uint _loc, address _player, uint _population) private {\n        require (locationIdValid(_loc));\n        bytes32 entropy = blockhash(block.number - 1);\n        PlanetType planetType = getPlanetType(_loc);\n        Planet memory newPlanet;\n        newPlanet.locationId = _loc;\n        newPlanet.owner = _player;\n        newPlanet.planetType = planetType;\n        newPlanet.capacity = perturbValue(defaultCapacity[uint(planetType)], uint8(entropy[0]));\n        newPlanet.growth = perturbValue(defaultGrowth[uint(planetType)], uint8(entropy[1]));\n        newPlanet.hardiness = perturbValue(defaultHardiness[uint(planetType)], uint8(entropy[2]));\n        newPlanet.stalwartness = perturbValue(defaultStalwartness[uint(planetType)], uint8(entropy[3]));\n        newPlanet.population = _population;\n        newPlanet.lastUpdated = now;\n        newPlanet.coordinatesRevealed = false;\n        planets[_loc] = newPlanet;\n\n        PlanetMetadata memory newPlanetMetadata;\n        newPlanetMetadata.locationId = _loc;\n        newPlanetMetadata.owner = _player;\n        newPlanetMetadata.version = VERSION;\n        newPlanetMetadata.destroyed = false;\n        newPlanetMetadata.exists = true;\n        newPlanetMetadata.entropySource = entropy;\n        planetMetadatas[_loc] = newPlanetMetadata;\n\n        planetIds.push(_loc);\n        totalCap += newPlanet.capacity;\n    }\n\n    function updatePopulation(uint _locationId, uint targetTime) private {\n        // logistic growth: in T time, population p1 increases to population\n        // p2 = capacity / (1 + e^{-4 * growth * T / capacity} * ((capacity / p1) - 1))\n        if (!planetIsOccupied(_locationId)) {\n            return;\n        }\n        Planet storage planet = planets[_locationId];\n        // check for div by zero\n        if (planet.population == 0) {\n            return;\n        }\n        uint time_elapsed = targetTime - planet.lastUpdated;\n\n        // 1\n        int128 one = ABDKMath64x64.fromUInt(1);\n\n        // e^{-4 * growth * T / capacity}\n        uint exponent_num_abs = 4 * planet.growth * time_elapsed;\n        int128 exponent = ABDKMath64x64.neg(ABDKMath64x64.divu(exponent_num_abs, planet.capacity));\n        int128 e_to_power_of_exponent = ABDKMath64x64.exp(exponent);\n\n        // (capacity / p1) - 1\n        int128 inv_pop_ratio = ABDKMath64x64.divu(planet.capacity, planet.population);\n        int128 inv_pop_ratio_minus_one = ABDKMath64x64.sub(inv_pop_ratio, one);\n\n        // denominator\n        int128 exp_times_ratio = ABDKMath64x64.mul(e_to_power_of_exponent, inv_pop_ratio_minus_one);\n        int128 denominator = ABDKMath64x64.add(one, exp_times_ratio);\n\n        // numerator\n        int128 numerator = ABDKMath64x64.fromUInt(planet.capacity);\n\n        // new population\n        uint64 new_pop = ABDKMath64x64.toUInt(ABDKMath64x64.div(numerator, denominator));\n        planet.population = uint (new_pop);\n\n    }\n\n    function initializePlayer(\n        uint[2] memory _a,\n        uint[2][2] memory _b,\n        uint[2] memory _c,\n        uint[1] memory _input\n    ) public {\n        require (!gamePaused && !gameEnded);\n        require(verifyInitProof(_a, _b, _c, _input));\n        address player = msg.sender;\n        uint loc = _input[0];\n        require(!playerInitialized[player]); // player doesn't have account\n        require (!planetIsInitialized(loc)); // loc was never owned\n\n        playerIds.push(player);\n        playerInitialized[player] = true;\n        initializePlanet(loc, player, 25000);\n        nPlayerTransactions[player] = 1;\n\n        emit PlayerInitialized(player, loc);\n    }\n\n    function moveShipsDecay(uint shipsMoved, uint hardiness, uint dist) private pure returns (uint) {\n        if (dist < hardiness) {\n            return shipsMoved;\n        }\n        int128 decayRatio = ABDKMath64x64.divu(hardiness, dist);\n        return ABDKMath64x64.mulu(decayRatio, shipsMoved);\n    }\n\n    function moveCheckproof(\n        uint[2] memory _a,\n        uint[2][2] memory _b,\n        uint[2] memory _c,\n        uint[3] memory _input\n    ) private view {\n        uint[3] memory input012;\n        for (uint i=0; i<input012.length; i++) {\n            input012[i] = _input[i];\n        }\n        require(verifyMoveProof(_a, _b, _c, input012));\n    }\n\n    function move (\n        uint[2] memory _a,\n        uint[2][2] memory _b,\n        uint[2] memory _c,\n        uint[4] memory _input\n    ) public {\n        QueuedArrival memory arrival = generateArrivalObject(_a, _b, _c, _input);\n        executeReadyArrivals(planetMetadatas[arrival.oldLoc]);\n        executeDeparture(arrival);\n\n        if (!planetIsInitialized(arrival.newLoc)) {\n            initializePlanet(arrival.newLoc, address(0), 0);\n        }\n\n        executeReadyArrivals(planetMetadatas[arrival.newLoc]);\n        enqueueArrivalOnPlanet(planetMetadatas[arrival.newLoc], arrival);\n\n        nPlayerTransactions[msg.sender] += 1;\n    }\n\n    function executeReadyArrivals(PlanetMetadata storage _p) internal {\n        while (true) {\n            uint idx;\n            bool found;\n            (found, idx) = findNextReadyArrival(_p);\n\n            if (!found) break;\n\n            arrive(_p.pending[idx]);\n            delete _p.pending[idx];\n        }\n    }\n\n    function getArrival(uint _planetLoc, uint _arrivalIdx) public view returns (QueuedArrival memory) {\n        return planetMetadatas[_planetLoc].pending[_arrivalIdx];\n    }\n\n    function findNextReadyArrival(PlanetMetadata storage _p) internal returns (bool, uint) {\n        uint earliestTime = now;\n        uint earliestIndex = 0;\n        bool found = false;\n        for (uint i = 0; i < _p.pendingCount; i++) {\n            if (_p.pending[i].arrivalTime != 0 && _p.pending[i].arrivalTime <= earliestTime) {\n                earliestTime = _p.pending[i].arrivalTime;\n                earliestIndex = i;\n                found = true;\n            }\n        }\n\n        return (found, earliestIndex);\n    }\n\n    function updatePlanet(uint _locationId, uint targetTime) internal {\n        updatePopulation(_locationId, targetTime);\n        planets[_locationId].lastUpdated = targetTime;\n    }\n\n    function generateArrivalObject(\n        uint[2] memory _a,\n        uint[2][2] memory _b,\n        uint[2] memory _c,\n        uint[4] memory _input\n    ) internal returns (QueuedArrival memory arrival) {\n        require (!gamePaused && !gameEnded);\n        // check proof validity\n        uint[3] memory moveCheckproofInput;\n        for (uint i = 0; i < 3; i++) {\n            moveCheckproofInput[i] = _input[i];\n        }\n        moveCheckproof(_a, _b, _c, moveCheckproofInput);\n\n        arrival.departureTime = now;\n        arrival.arrivalTime = now + (_input[2] / 3);\n        arrival.player = msg.sender;\n        arrival.oldLoc = _input[0];\n        arrival.newLoc = _input[1];\n        arrival.maxDist = _input[2];\n        arrival.shipsMoved = _input[3];\n    }\n\n    function executeDeparture (QueuedArrival memory arrival) internal {\n        require(playerInitialized[arrival.player]); // player exists\n        require(ownerIfOccupiedElseZero(arrival.oldLoc) == arrival.player); // planet at oldLoc is occupied by player\n        require(!planetMetadatas[arrival.oldLoc].destroyed);\n        updatePlanet(arrival.oldLoc, now);\n\n        require(planets[arrival.oldLoc].population >= arrival.shipsMoved); // player can move at most as many ships as exist on oldLoc\n        planets[arrival.oldLoc].population -= arrival.shipsMoved;\n    }\n\n    function arrive(QueuedArrival memory arrival) internal {\n        require(!planetMetadatas[arrival.newLoc].destroyed);\n        updatePlanet(arrival.newLoc, arrival.arrivalTime);\n\n        if (!planetIsInitialized(arrival.newLoc)) {\n            initializePlanet(arrival.newLoc, arrival.player, 0);\n        }\n\n        uint shipsLanded = moveShipsDecay(arrival.shipsMoved, planets[arrival.oldLoc].hardiness, arrival.maxDist) * planets[arrival.oldLoc].stalwartness / 100;\n\n        if (!planetIsOccupied(arrival.newLoc)) {\n            // colonizing an uninhabited planet\n            planets[arrival.newLoc].owner = arrival.player;\n            planets[arrival.newLoc].population += shipsLanded;\n            if (planets[arrival.newLoc].population > planets[arrival.newLoc].capacity) {\n                planets[arrival.newLoc].population = planets[arrival.newLoc].capacity;\n            }\n        } else if (ownerIfOccupiedElseZero(arrival.newLoc) == arrival.player) {\n            // moving forces between my planets\n            // stalwartness bonus is NOT APPLIED\n            planets[arrival.newLoc].population += shipsLanded * 100 / planets[arrival.oldLoc].stalwartness;\n        } else {\n            // attacking enemy\n            if (planets[arrival.newLoc].population > shipsLanded) {\n                // attack reduces target planet's garrison but doesn't conquer it\n                planets[arrival.newLoc].population -= shipsLanded;\n            } else {\n                // conquers planet\n                planets[arrival.newLoc].owner = arrival.player;\n                planets[arrival.newLoc].population = shipsLanded - planets[arrival.newLoc].population;\n            }\n        }\n    }\n\n    function enqueueArrivalOnPlanet(PlanetMetadata storage _p, QueuedArrival memory arrival) internal {\n        for (uint i = 0; i < _p.pendingCount; i++) {\n            if (_p.pending[i].arrivalTime == 0) {\n                _p.pending[i] = arrival;\n                emit ArrivalQueued(arrival);\n                return;\n            }\n        }\n        _p.pendingCount += 1;\n        _p.pending[_p.pendingCount - 1] = arrival;\n        emit ArrivalQueued(arrival);\n    }\n\n/*\n    function cashOut(uint loc) external {\n        require(msg.sender == planets[loc].owner);\n        require(!planetMetadatas[loc].destroyed);\n\n        updatePlanet(loc, now);\n        planetMetadatas[loc].destroyed = true;\n        uint oldCapacity = planets[loc].capacity;\n        uint toWithdraw = (address(this)).balance * planets[loc].population / totalCap;\n        totalCap -= oldCapacity;\n        msg.sender.transfer(toWithdraw);\n\n        emit PlanetDestroyed(loc);\n    }\n    */\n\n    // we can deposit eth\n    function() payable external onlyOwner {}\n\n    // admin functions\n    function setOwner(address newOwner) external onlyOwner {\n        require(newOwner != address(0));\n        owner = address(uint160(newOwner));\n    }\n\n    function pauseGame() external onlyOwner {\n        require(!gamePaused && !gameEnded);\n        gamePaused = true;\n    }\n\n    function resumeGame() external onlyOwner {\n        require(gamePaused && !gameEnded);\n        gamePaused = false;\n    }\n\n    function endGame() external onlyOwner {\n        require(gamePaused && !gameEnded);\n        gameEnded = true;\n        uint oldBalance = (address(this)).balance;\n        for (uint i = 0; i < planetIds.length; i++) {\n            Planet memory planet = planets[planetIds[i]];\n            PlanetMetadata memory planetMetadata = planetMetadatas[planetIds[i]];\n            if (planet.owner != address(0) && planet.owner == planetMetadata.owner && !planetMetadata.destroyed) {\n                address payable ownerPayable = address(uint160(planet.owner));\n                ownerPayable.transfer(oldBalance * planet.capacity / totalCap);\n            }\n        }\n    }\n}\n",
  "sourcePath": "/Users/smsunarto/git/darkforest/contracts/DarkForestV1Core.sol",
  "compiler": {
    "name": "solc",
    "version": "0.5.14+commit.01f1aaa4.Emscripten.clang"
  },
  "schemaVersion": "3.0.23",
  "updatedAt": "2020-06-10T08:35:11.518Z",
  "devdoc": {
    "methods": {}
  },
  "userdoc": {
    "methods": {}
  }
}