{
  "contractName": "DarkForestV0",
  "abi": [
    {
      "anonymous": false,
      "inputs": [
        {
          "indexed": false,
          "internalType": "address",
          "name": "player",
          "type": "address"
        },
        {
          "indexed": false,
          "internalType": "uint256",
          "name": "loc",
          "type": "uint256"
        }
      ],
      "name": "PlayerInitialized",
      "type": "event"
    },
    {
      "anonymous": false,
      "inputs": [
        {
          "indexed": false,
          "internalType": "address",
          "name": "player",
          "type": "address"
        },
        {
          "indexed": false,
          "internalType": "uint256",
          "name": "oldLoc",
          "type": "uint256"
        },
        {
          "indexed": false,
          "internalType": "uint256",
          "name": "newLoc",
          "type": "uint256"
        },
        {
          "indexed": false,
          "internalType": "uint256",
          "name": "maxDist",
          "type": "uint256"
        }
      ],
      "name": "PlayerMoved",
      "type": "event"
    },
    {
      "constant": true,
      "inputs": [],
      "name": "maxX",
      "outputs": [
        {
          "internalType": "uint256",
          "name": "",
          "type": "uint256"
        }
      ],
      "payable": false,
      "stateMutability": "view",
      "type": "function"
    },
    {
      "constant": true,
      "inputs": [],
      "name": "maxY",
      "outputs": [
        {
          "internalType": "uint256",
          "name": "",
          "type": "uint256"
        }
      ],
      "payable": false,
      "stateMutability": "view",
      "type": "function"
    },
    {
      "constant": true,
      "inputs": [
        {
          "internalType": "address",
          "name": "",
          "type": "address"
        }
      ],
      "name": "playerLocations",
      "outputs": [
        {
          "internalType": "uint256",
          "name": "",
          "type": "uint256"
        }
      ],
      "payable": false,
      "stateMutability": "view",
      "type": "function"
    },
    {
      "constant": true,
      "inputs": [
        {
          "internalType": "uint256",
          "name": "",
          "type": "uint256"
        }
      ],
      "name": "players",
      "outputs": [
        {
          "internalType": "address",
          "name": "",
          "type": "address"
        }
      ],
      "payable": false,
      "stateMutability": "view",
      "type": "function"
    },
    {
      "constant": true,
      "inputs": [
        {
          "internalType": "uint256[2]",
          "name": "a",
          "type": "uint256[2]"
        },
        {
          "internalType": "uint256[2][2]",
          "name": "b",
          "type": "uint256[2][2]"
        },
        {
          "internalType": "uint256[2]",
          "name": "c",
          "type": "uint256[2]"
        },
        {
          "internalType": "uint256[1]",
          "name": "input",
          "type": "uint256[1]"
        }
      ],
      "name": "verifyInitProof",
      "outputs": [
        {
          "internalType": "bool",
          "name": "",
          "type": "bool"
        }
      ],
      "payable": false,
      "stateMutability": "view",
      "type": "function"
    },
    {
      "constant": true,
      "inputs": [
        {
          "internalType": "uint256[2]",
          "name": "a",
          "type": "uint256[2]"
        },
        {
          "internalType": "uint256[2][2]",
          "name": "b",
          "type": "uint256[2][2]"
        },
        {
          "internalType": "uint256[2]",
          "name": "c",
          "type": "uint256[2]"
        },
        {
          "internalType": "uint256[3]",
          "name": "input",
          "type": "uint256[3]"
        }
      ],
      "name": "verifyMoveProof",
      "outputs": [
        {
          "internalType": "bool",
          "name": "",
          "type": "bool"
        }
      ],
      "payable": false,
      "stateMutability": "view",
      "type": "function"
    },
    {
      "constant": true,
      "inputs": [],
      "name": "getNPlayers",
      "outputs": [
        {
          "internalType": "uint256",
          "name": "",
          "type": "uint256"
        }
      ],
      "payable": false,
      "stateMutability": "view",
      "type": "function"
    },
    {
      "constant": false,
      "inputs": [
        {
          "internalType": "uint256[2]",
          "name": "_a",
          "type": "uint256[2]"
        },
        {
          "internalType": "uint256[2][2]",
          "name": "_b",
          "type": "uint256[2][2]"
        },
        {
          "internalType": "uint256[2]",
          "name": "_c",
          "type": "uint256[2]"
        },
        {
          "internalType": "uint256[1]",
          "name": "_input",
          "type": "uint256[1]"
        }
      ],
      "name": "initializePlayer",
      "outputs": [],
      "payable": false,
      "stateMutability": "nonpayable",
      "type": "function"
    },
    {
      "constant": false,
      "inputs": [
        {
          "internalType": "uint256[2]",
          "name": "_a",
          "type": "uint256[2]"
        },
        {
          "internalType": "uint256[2][2]",
          "name": "_b",
          "type": "uint256[2][2]"
        },
        {
          "internalType": "uint256[2]",
          "name": "_c",
          "type": "uint256[2]"
        },
        {
          "internalType": "uint256[3]",
          "name": "_input",
          "type": "uint256[3]"
        }
      ],
      "name": "move",
      "outputs": [],
      "payable": false,
      "stateMutability": "nonpayable",
      "type": "function"
    }
  ],
  "bytecode": "0x6080604052601e600055601e60015534801561001a57600080fd5b5061220a8061002a6000396000f3fe608060405234801561001057600080fd5b50600436106100935760003560e01c80638a05b329116100665780638a05b329146104f15780638b04f6471461050f5780638c027bf21461052d578063e211c07214610585578063f71d96cb146106fe57610093565b806308a9dc95146100985780635a648465146101f957806370d20d3e14610372578063717be3c814610390575b600080fd5b6101f760048036036101608110156100af57600080fd5b8101908080604001906002806020026040519081016040528092919082600260200280828437600081840152601f19601f82011690508083019250505050505091929192908060800190600280602002604051908101604052809291906000905b82821015610164578382604002016002806020026040519081016040528092919082600260200280828437600081840152601f19601f82011690508083019250505050505081526020019060010190610110565b50505050919291929080604001906002806020026040519081016040528092919082600260200280828437600081840152601f19601f820116905080830192505050505050919291929080606001906003806020026040519081016040528092919082600360200280828437600081840152601f19601f820116905080830192505050505050919291929050505061076c565b005b610358600480360361016081101561021057600080fd5b8101908080604001906002806020026040519081016040528092919082600260200280828437600081840152601f19601f82011690508083019250505050505091929192908060800190600280602002604051908101604052809291906000905b828210156102c5578382604002016002806020026040519081016040528092919082600260200280828437600081840152601f19601f82011690508083019250505050505081526020019060010190610271565b50505050919291929080604001906002806020026040519081016040528092919082600260200280828437600081840152601f19601f820116905080830192505050505050919291929080606001906003806020026040519081016040528092919082600360200280828437600081840152601f19601f82011690508083019250505050505091929192905050506108fd565b604051808215151515815260200191505060405180910390f35b61037a610999565b6040518082815260200191505060405180910390f35b6104ef60048036036101208110156103a757600080fd5b8101908080604001906002806020026040519081016040528092919082600260200280828437600081840152601f19601f82011690508083019250505050505091929192908060800190600280602002604051908101604052809291906000905b8282101561045c578382604002016002806020026040519081016040528092919082600260200280828437600081840152601f19601f82011690508083019250505050505081526020019060010190610408565b50505050919291929080604001906002806020026040519081016040528092919082600260200280828437600081840152601f19601f820116905080830192505050505050919291929080602001906001806020026040519081016040528092919082600160200280828437600081840152601f19601f820116905080830192505050505050919291929050505061099f565b005b6104f9610b4b565b6040518082815260200191505060405180910390f35b610517610b58565b6040518082815260200191505060405180910390f35b61056f6004803603602081101561054357600080fd5b81019080803573ffffffffffffffffffffffffffffffffffffffff169060200190929190505050610b5e565b6040518082815260200191505060405180910390f35b6106e4600480360361012081101561059c57600080fd5b8101908080604001906002806020026040519081016040528092919082600260200280828437600081840152601f19601f82011690508083019250505050505091929192908060800190600280602002604051908101604052809291906000905b82821015610651578382604002016002806020026040519081016040528092919082600260200280828437600081840152601f19601f820116905080830192505050505050815260200190600101906105fd565b50505050919291929080604001906002806020026040519081016040528092919082600260200280828437600081840152601f19601f820116905080830192505050505050919291929080602001906001806020026040519081016040528092919082600160200280828437600081840152601f19601f8201169050808301925050505050509192919290505050610b76565b604051808215151515815260200191505060405180910390f35b61072a6004803603602081101561071457600080fd5b8101908080359060200190929190505050610c12565b604051808273ffffffffffffffffffffffffffffffffffffffff1673ffffffffffffffffffffffffffffffffffffffff16815260200191505060405180910390f35b610778848484846108fd565b61078157600080fd5b600033905060008260006003811061079557fe5b602002015190506000836001600381106107ab57fe5b602002015190506000846002600381106107c157fe5b6020020151905060008314156107d657600080fd5b82600260008673ffffffffffffffffffffffffffffffffffffffff1673ffffffffffffffffffffffffffffffffffffffff168152602001908152602001600020541461082157600080fd5b61082a82610c4e565b1561083457600080fd5b81600260008673ffffffffffffffffffffffffffffffffffffffff1673ffffffffffffffffffffffffffffffffffffffff168152602001908152602001600020819055507f3f403db52377649f2701976bb76f80d65ffca2a457d4e165dfe16568020af51f84848484604051808573ffffffffffffffffffffffffffffffffffffffff1673ffffffffffffffffffffffffffffffffffffffff16815260200184815260200183815260200182815260200194505050505060405180910390a15050505050505050565b6000606060036040519080825280602002602001820160405280156109315781602001602082028038833980820191505090505b50905060008090505b60038110156109795783816003811061094f57fe5b602002015182828151811061096057fe5b602002602001018181525050808060010191505061093a565b5061098e86868684610989610d03565b6111c2565b915050949350505050565b60005481565b6109ab84848484610b76565b6109b457600080fd5b60003390506000826000600181106109c857fe5b602002015190506000600260008473ffffffffffffffffffffffffffffffffffffffff1673ffffffffffffffffffffffffffffffffffffffff1681526020019081526020016000205414610a1b57600080fd5b610a2481610c4e565b15610a2e57600080fd5b60038290806001815401808255809150509060018203906000526020600020016000909192909190916101000a81548173ffffffffffffffffffffffffffffffffffffffff021916908373ffffffffffffffffffffffffffffffffffffffff1602179055505080600260008473ffffffffffffffffffffffffffffffffffffffff1673ffffffffffffffffffffffffffffffffffffffff168152602001908152602001600020819055507f5765df5ce7cf4175ef997923b4936159dcf3cea059434dab4643214d690a2b958282604051808373ffffffffffffffffffffffffffffffffffffffff1673ffffffffffffffffffffffffffffffffffffffff1681526020018281526020019250505060405180910390a1505050505050565b6000600380549050905090565b60015481565b60026020528060005260406000206000915090505481565b600060606001604051908082528060200260200182016040528015610baa5781602001602082028038833980820191505090505b50905060008090505b6001811015610bf257838160018110610bc857fe5b6020020151828281518110610bd957fe5b6020026020010181815250508080600101915050610bb3565b50610c0786868684610c02611343565b6111c2565b915050949350505050565b60038181548110610c1f57fe5b906000526020600020016000915054906101000a900473ffffffffffffffffffffffffffffffffffffffff1681565b600080600090505b600380549050811015610cf8576002600060038381548110610c7457fe5b9060005260206000200160009054906101000a900473ffffffffffffffffffffffffffffffffffffffff1673ffffffffffffffffffffffffffffffffffffffff1673ffffffffffffffffffffffffffffffffffffffff16815260200190815260200160002054831415610ceb576001915050610cfe565b8080600101915050610c56565b50600090505b919050565b610d0b612079565b60405180604001604052807f045441d174ebd8bb5b322001fc85084e61b536f4825fa03f4e3cdae7f450184781526020017f038b80ecd2c1ff36db4e9ba5a47c70696a847c3bb9fb427b822da0279a778e408152508160000181905250604051806040016040528060405180604001604052807f170827c885650de3db66b53b25e148e615d3134a83ca47e301ecf58475f6cd2f81526020017f256d4b490ee5e3063a1a59dfce17b475afcdfdb50e14cb18f159a1c29a722215815250815260200160405180604001604052807f1252f28505745707106110e7de24b939946ffbf8fd234f7cfae30808faf325d181526020017f16d680b478cdf09b21390a961c6ee42ac779fb24fc1f154f89c37d30b5966f2d8152508152508160200181905250604051806040016040528060405180604001604052807f0bbfc170bb3988b884f0ce86ce7d89752f8b0ae82bc7cf26a4d58f235bd41fcd81526020017f0219ffcc4260bd1cdfb9da02954a800019d9a52d66acabfccdf8fb890bfb6a6c815250815260200160405180604001604052807f03aee55e9e384fb55651484f97a2efe963f34a53b544510c552bd8dfbc038fe581526020017f141266452c44433fcbd3196fd0c35d909cb72b47607f064eb7ecf32d0d22ac708152508152508160400181905250604051806040016040528060405180604001604052807f262264e5759fe63515417bbcc9d94ef2dcdd65dac1a1f2a15207074dc8110cdd81526020017f14bbc20993968a6c98e0b2f13e7e8a91ea68a4adf914a80a95b25ede1f66cc11815250815260200160405180604001604052807f0d334fe3513d2ba10d9fe04009c90aadc4813fca9c26108fc1ba744691e17a8581526020017f28d461e52f72d631ae9ac65497ec70dc86d51037ebc7e021329ea8bcbd89f7f181525081525081606001819052506004604051908082528060200260200182016040528015610ff257816020015b610fdf6120c0565b815260200190600190039081610fd75790505b50816080018190525060405180604001604052807f2bd8147a6be9a469693187ad09f879dcdb5e8abb85f37efa76ac842a3ebfacce81526020017f1bbb26c868466ad800d3fd1eb7c7e9d1b91f7a288fc9c054699b9d4d02a6166f815250816080015160008151811061106157fe5b602002602001018190525060405180604001604052807f21a0c9cb1bde3d35b64fc21889f86e39cab58b5306acbd46bb31a00b74fb117181526020017f036065557ad8e7e621525917b6950165e392613879d44be322454a906a0371cc81525081608001516001815181106110d257fe5b602002602001018190525060405180604001604052807f14c06f78055f15b95f77b2b365b7719ef10ce6ce5bf9f7724dd203a3e0e1cedf81526020017f14253033b713038d345de542a96ccc0a566943b55a34fdb95edd27a519a0dc32815250816080015160028151811061114357fe5b602002602001018190525060405180604001604052807f2744a47cb5358d3e27baf48e2095d00e83fb37cc733abeef6b2c0239c5ba3c2d81526020017f22ff50ed54ea684cff47beddb8fb9fd09e44983fefc4bafce0a39c3424e9e25481525081608001516003815181106111b457fe5b602002602001018190525090565b60006111cc6120da565b6040518060400160405280886000600281106111e457fe5b60200201518152602001886001600281106111fb57fe5b60200201518152508160000181905250604051806040016040528060405180604001604052808960006002811061122e57fe5b602002015160006002811061123f57fe5b602002015181526020018960006002811061125657fe5b602002015160016002811061126757fe5b6020020151815250815260200160405180604001604052808960016002811061128c57fe5b602002015160006002811061129d57fe5b60200201518152602001896001600281106112b457fe5b60200201516001600281106112c557fe5b602002015181525081525081602001819052506040518060400160405280866000600281106112f057fe5b602002015181526020018660016002811061130757fe5b602002015181525081604001819052506000611324858386611720565b141561133457600191505061133a565b60009150505b95945050505050565b61134b612079565b60405180604001604052807f2d3663326fb9e1ee03af432723fcf7c2617d55ae3bf3df9e89ae11378517c5d281526020017f1de6bb3272ca7b6aec42b13bb2275950a2ca5a9f26b14f1fb4e8ee23f03160c98152508160000181905250604051806040016040528060405180604001604052807f2664eec27fe61ee6032d88f8e257d1d9b0e46795a3310c085ae20694a8d0799b81526020017f2225276c4d599be630bc5b508c0c35accfc8ffb4bea3c7124e06f3b0db8c1b02815250815260200160405180604001604052807f16416d8c0fafb41e7c0708dcfaa8ec734fc1b175152150c4ec2f880ce0e4581481526020017f2abed30551a003a8b5084e99f15a88caab82b7bd461e4933f662abfca75eda588152508152508160200181905250604051806040016040528060405180604001604052807f259ae23d8005a48841859705860384c291bfc0a77ee4fc9e0f01226b17d313e281526020017f2e59ac393796a41163fef34f017f487beb839eadeecde212cb60d48e3e497a3c815250815260200160405180604001604052807f27f7d2d18c6c4aa1d860e8b4c5aa758dca9c265ed14b97af90febd492f66c2df81526020017f069b89685da790d382cda1e15210b4b647bae186ff7cbe76adbb1280a698cd648152508152508160400181905250604051806040016040528060405180604001604052807f25fa6eea0a789e250fc2379abdbddd6ff1e388673793da63f854300c5440bf9181526020017f1d56418104202dfccdd1a2b84dc0705296f11502fc2727919d7f176421450b49815250815260200160405180604001604052807f1f8a17e7108b369c5ef7d1708f50effec2bdb407b94d2d650fd01416ceaf0a9b81526020017f103bc795f0bd5dcb14c0a9d1c0e336a85faee5c3e643d1f4f9c410675ce5535b8152508152508160600181905250600260405190808252806020026020018201604052801561163257816020015b61161f6120c0565b8152602001906001900390816116175790505b50816080018190525060405180604001604052807f181cad344f3dfbce16a0721bc9572366c7104b4144eff02265f76d90688b608b81526020017f22a2c6f6d54bf4c23a506764cebc6e4896cb248fdb3fa8c9e20c55c569cd86c181525081608001516000815181106116a157fe5b602002602001018190525060405180604001604052807f2c206b8d8bf460170ef31aa3bcc148f7ecc9df5acf2d2337cf046d040fa63d2d81526020017f130f3e75d090ea7c0d2f7ca8bf9f73bad8c7785f1302a1988e28a64729720fc4815250816080015160018151811061171257fe5b602002602001018190525090565b6000807f30644e72e131a029b85045b68181585d2833e84879b9709143e1f593f000000190508260800151516001865101146117c4576040517f08c379a00000000000000000000000000000000000000000000000000000000081526004018080602001828103825260128152602001807f76657269666965722d6261642d696e707574000000000000000000000000000081525060200191505060405180910390fd5b6117cc61210d565b6040518060400160405280600081526020016000815250905060008090505b86518110156118cb578287828151811061180157fe5b60200260200101511061187c576040517f08c379a000000000000000000000000000000000000000000000000000000000815260040180806020018281038252601f8152602001807f76657269666965722d6774652d736e61726b2d7363616c61722d6669656c640081525060200191505060405180910390fd5b6118bc826118b78760800151600185018151811061189657fe5b60200260200101518a85815181106118aa57fe5b6020026020010151611941565b611a3c565b915080806001019150506117eb565b506118ee8185608001516000815181106118e157fe5b6020026020010151611a3c565b90506119246119008660000151611b56565b8660200151866000015187602001518589604001518b604001518b60600151611bf0565b6119335760019250505061193a565b6000925050505b9392505050565b61194961210d565b611951612127565b83600001518160006003811061196357fe5b60200201818152505083602001518160016003811061197e57fe5b602002018181525050828160026003811061199557fe5b602002018181525050600060608360808460076107d05a03fa905080600081146119be576119c0565bfe5b5080611a34576040517f08c379a00000000000000000000000000000000000000000000000000000000081526004018080602001828103825260128152602001807f70616972696e672d6d756c2d6661696c6564000000000000000000000000000081525060200191505060405180910390fd5b505092915050565b611a4461210d565b611a4c612149565b836000015181600060048110611a5e57fe5b602002018181525050836020015181600160048110611a7957fe5b602002018181525050826000015181600260048110611a9457fe5b602002018181525050826020015181600360048110611aaf57fe5b602002018181525050600060608360c08460066107d05a03fa90508060008114611ad857611ada565bfe5b5080611b4e576040517f08c379a00000000000000000000000000000000000000000000000000000000081526004018080602001828103825260128152602001807f70616972696e672d6164642d6661696c6564000000000000000000000000000081525060200191505060405180910390fd5b505092915050565b611b5e61210d565b60007f30644e72e131a029b85045b68181585d97816a916871ca8d3c208c16d87cfd47905060008360000151148015611b9b575060008360200151145b15611bbf576040518060400160405280600081526020016000815250915050611beb565b60405180604001604052808460000151815260200182856020015181611be157fe5b0683038152509150505b919050565b600060606004604051908082528060200260200182016040528015611c2f57816020015b611c1c6120c0565b815260200190600190039081611c145790505b50905060606004604051908082528060200260200182016040528015611c6f57816020015b611c5c61216b565b815260200190600190039081611c545790505b5090508a82600081518110611c8057fe5b60200260200101819052508882600181518110611c9957fe5b60200260200101819052508682600281518110611cb257fe5b60200260200101819052508482600381518110611ccb57fe5b60200260200101819052508981600081518110611ce457fe5b60200260200101819052508781600181518110611cfd57fe5b60200260200101819052508581600281518110611d1657fe5b60200260200101819052508381600381518110611d2f57fe5b6020026020010181905250611d448282611d54565b9250505098975050505050505050565b60008151835114611dcd576040517f08c379a00000000000000000000000000000000000000000000000000000000081526004018080602001828103825260168152602001807f70616972696e672d6c656e677468732d6661696c65640000000000000000000081525060200191505060405180910390fd5b6000835190506000600682029050606081604051908082528060200260200182016040528015611e0c5781602001602082028038833980820191505090505b50905060008090505b83811015611fb257868181518110611e2957fe5b602002602001015160000151826000600684020181518110611e4757fe5b602002602001018181525050868181518110611e5f57fe5b602002602001015160200151826001600684020181518110611e7d57fe5b602002602001018181525050858181518110611e9557fe5b602002602001015160000151600060028110611ead57fe5b6020020151826002600684020181518110611ec457fe5b602002602001018181525050858181518110611edc57fe5b602002602001015160000151600160028110611ef457fe5b6020020151826003600684020181518110611f0b57fe5b602002602001018181525050858181518110611f2357fe5b602002602001015160200151600060028110611f3b57fe5b6020020151826004600684020181518110611f5257fe5b602002602001018181525050858181518110611f6a57fe5b602002602001015160200151600160028110611f8257fe5b6020020151826005600684020181518110611f9957fe5b6020026020010181815250508080600101915050611e15565b50611fbb612191565b6000602082602086026020860160086107d05a03fa90508060008114611fe057611fe2565bfe5b5080612056576040517f08c379a00000000000000000000000000000000000000000000000000000000081526004018080602001828103825260158152602001807f70616972696e672d6f70636f64652d6661696c6564000000000000000000000081525060200191505060405180910390fd5b60008260006001811061206557fe5b602002015114159550505050505092915050565b6040518060a0016040528061208c6120c0565b815260200161209961216b565b81526020016120a661216b565b81526020016120b361216b565b8152602001606081525090565b604051806040016040528060008152602001600081525090565b60405180606001604052806120ed6120c0565b81526020016120fa61216b565b81526020016121076120c0565b81525090565b604051806040016040528060008152602001600081525090565b6040518060600160405280600390602082028038833980820191505090505090565b6040518060800160405280600490602082028038833980820191505090505090565b604051806040016040528061217e6121b3565b815260200161218b6121b3565b81525090565b6040518060200160405280600190602082028038833980820191505090505090565b604051806040016040528060029060208202803883398082019150509050509056fea265627a7a7231582034bcc4de52366f7d5ceb5a31b385368f04b97ec3b0ab3b32590b3b0eba5ba5a364736f6c634300050e0032",
  "source": "pragma solidity ^0.5.8;\nimport \"./Verifier.sol\";\n\ncontract DarkForestV0 is Verifier {\n\n    uint public maxX = 30;\n    uint public maxY = 30;\n\n    event PlayerInitialized(address player, uint loc);\n    event PlayerMoved(address player, uint oldLoc, uint newLoc, uint maxDist);\n\n    mapping (address => uint) public playerLocations;\n    address[] public players;\n\n    function _isOccupied(uint _r) private view returns (bool) {\n        for (uint i = 0; i < players.length; i++) {\n            if (_r == playerLocations[players[i]]) {\n                return true;\n            }\n        }\n        return false;\n    }\n\n    function getNPlayers() public view returns (uint) {\n        return players.length;\n    }\n\n    function initializePlayer(\n        uint[2] memory _a,\n        uint[2][2] memory _b,\n        uint[2] memory _c,\n        uint[1] memory _input\n    ) public {\n        require(verifyInitProof(_a, _b, _c, _input));\n        address player = msg.sender;\n        uint loc = _input[0];\n        require(playerLocations[player] == 0); // player doesn't have account\n        require (!_isOccupied(loc)); // loc not occupied\n        players.push(player);\n        playerLocations[player] = loc;\n\n        emit PlayerInitialized(player, loc);\n    }\n\n    function move(\n        uint[2] memory _a,\n        uint[2][2] memory _b,\n        uint[2] memory _c,\n        uint[3] memory _input\n    ) public {\n        require(verifyMoveProof(_a, _b, _c, _input));\n        address player = msg.sender;\n        uint oldLoc = _input[0];\n        uint newLoc = _input[1];\n        uint maxDist = _input[2];\n        require(oldLoc != 0); // player has account\n        require(playerLocations[player] == oldLoc); // player at oldLoc\n        require(!_isOccupied(newLoc)); // newLoc empty\n        playerLocations[player] = newLoc;\n\n        emit PlayerMoved(player, oldLoc, newLoc, maxDist);\n    }\n\n}\n",
  "sourcePath": "/Users/smsunarto/git/darkforest/contracts/DarkForestV0Core.sol",
  "compiler": {
    "name": "solc",
    "version": "0.5.14+commit.01f1aaa4.Emscripten.clang"
  },
  "schemaVersion": "3.0.23",
  "updatedAt": "2020-06-10T08:35:11.515Z",
  "devdoc": {
    "methods": {}
  },
  "userdoc": {
    "methods": {}
  }
}