{
  "fileName": "DarkForestCore.sol",
  "contractName": "DarkForestCore",
  "source": "// SPDX-License-Identifier: UNLICENSED\npragma solidity ^0.6.9;\npragma experimental ABIEncoderV2;\n\n// Import base Initializable contract\nimport \"@openzeppelin/upgrades/contracts/Initializable.sol\";\nimport \"@openzeppelin/contracts-ethereum-package/contracts/math/SafeMath.sol\";\nimport \"@openzeppelin/contracts-ethereum-package/contracts/math/Math.sol\";\nimport \"./Verifier.sol\";\nimport \"./DarkForestStorageV1.sol\";\nimport \"./DarkForestUtils.sol\";\nimport \"./DarkForestPlanet.sol\";\nimport \"./DarkForestLazyUpdate.sol\";\nimport \"./DarkForestInitialize.sol\";\n\n// .______       _______     ___       _______  .___  ___.  _______\n// |   _  \\     |   ____|   /   \\     |       \\ |   \\/   | |   ____|\n// |  |_)  |    |  |__     /  ^  \\    |  .--.  ||  \\  /  | |  |__\n// |      /     |   __|   /  /_\\  \\   |  |  |  ||  |\\/|  | |   __|\n// |  |\\  \\----.|  |____ /  _____  \\  |  '--'  ||  |  |  | |  |____\n// | _| `._____||_______/__/     \\__\\ |_______/ |__|  |__| |_______|\n//\n// READ THIS FIRST BEFORE EDITING ANYTHING IN THIS FILE:\n// https://docs.openzeppelin.com/learn/upgrading-smart-contracts#limitations-of-contract-upgrades\n//\n// DO NOT ADD ANY STORAGE VARIABLES IN THIS FILE\n// IT SHOULD BELONG AT STORAGE CONTRACTS\n// ADDING STORAGE VARIABLES HERE WI LL BLOCK ANY STORAGE CONTRACTS FROM EVER\n// ADDING THEIR OWN VARIABLES EVER AGAIN.\n\ncontract DarkForestCore is Initializable, DarkForestStorageV1 {\n    using ABDKMath64x64 for *;\n    using SafeMath for *;\n    using Math for uint256;\n\n    event PlayerInitialized(address player, uint256 loc);\n    event ArrivalQueued(uint256 arrivalId);\n    event PlanetUpgraded(uint256 loc);\n\n    function initialize(\n        address _adminAddress,\n        address _whitelistAddress,\n        bool _disableZKCheck\n    ) public initializer {\n        adminAddress = _adminAddress;\n        whitelist = Whitelist(_whitelistAddress);\n\n        paused = false;\n\n        VERSION = 1;\n        DISABLE_ZK_CHECK = _disableZKCheck;\n\n        gameEndTimestamp = 1597464000;\n        target4RadiusConstant = 50;\n        target5RadiusConstant = 12;\n\n        planetTypeThresholds = [65536, 0];\n        planetLevelThresholds = [\n            16777216,\n            4194256,\n            1048516,\n            262081,\n            65472,\n            16320,\n            4032,\n            960\n        ];\n\n        DarkForestInitialize.initializeDefaults(planetDefaultStats);\n        DarkForestInitialize.initializeUpgrades(upgrades);\n\n        initializedPlanetCountByLevel = [0, 0, 0, 0, 0, 0, 0, 0];\n        for (uint256 i = 0; i < planetLevelThresholds.length; i += 1) {\n            cumulativeRarities.push(\n                (2**24 / planetLevelThresholds[i]) * PLANET_RARITY\n            );\n        }\n\n        _updateWorldRadius();\n    }\n\n    //////////////////////\n    /// ACCESS CONTROL ///\n    //////////////////////\n    modifier onlyAdmin() {\n        require(msg.sender == adminAddress, \"Sender is not a game master\");\n        _;\n    }\n\n    modifier onlyWhitelisted() {\n        require(\n            whitelist.isWhitelisted(msg.sender),\n            \"Player is not whitelisted\"\n        );\n        _;\n    }\n\n    modifier notPaused() {\n        require(!paused, \"Game is paused\");\n        _;\n    }\n\n    modifier notEnded() {\n        require(block.timestamp < gameEndTimestamp, \"Game have ended\");\n        _;\n    }\n\n    function changeAdmin(address _newAdmin) public onlyAdmin {\n        require(_newAdmin != address(0), \"newOwner cannot be 0x0\");\n        adminAddress = _newAdmin;\n    }\n\n    /////////////////////////////\n    /// Administrative Engine ///\n    /////////////////////////////\n    function pause() public onlyAdmin {\n        require(!paused, \"Game is already paused\");\n        paused = true;\n    }\n\n    function unpause() public onlyAdmin {\n        require(paused, \"Game is already unpaused\");\n        paused = false;\n    }\n\n    function changeGameEndTime(uint256 _newGameEnd) public onlyAdmin {\n        gameEndTimestamp = _newGameEnd;\n    }\n\n    function changeTarget4RadiusConstant(uint256 _newConstant)\n        public\n        onlyAdmin\n    {\n        target4RadiusConstant = _newConstant;\n    }\n\n    function changeTarget5RadiusConstant(uint256 _newConstant)\n        public\n        onlyAdmin\n    {\n        target5RadiusConstant = _newConstant;\n    }\n\n    //////////////\n    /// Helper ///\n    //////////////\n\n    // Public helper getters\n    function getNPlanets() public view returns (uint256) {\n        return planetIds.length;\n    }\n\n    function bulkGetPlanetIds(uint256 startIdx, uint256 endIdx)\n        public\n        view\n        returns (uint256[] memory ret)\n    {\n        // return slice of planetIds array from startIdx through endIdx - 1\n        ret = new uint256[](endIdx - startIdx);\n        for (uint256 i = startIdx; i < endIdx; i++) {\n            ret[i - startIdx] = planetIds[i];\n        }\n    }\n\n    function bulkGetPlanets(uint256 startIdx, uint256 endIdx)\n        public\n        view\n        returns (DarkForestTypes.Planet[] memory ret)\n    {\n        // return array of planets corresponding to planetIds[startIdx] through planetIds[endIdx - 1]\n        ret = new DarkForestTypes.Planet[](endIdx - startIdx);\n        for (uint256 i = startIdx; i < endIdx; i++) {\n            ret[i - startIdx] = planets[planetIds[i]];\n        }\n    }\n\n    function bulkGetPlanetsExtendedInfo(uint256 startIdx, uint256 endIdx)\n        public\n        view\n        returns (DarkForestTypes.PlanetExtendedInfo[] memory ret)\n    {\n        // return array of planets corresponding to planetIds[startIdx] through planetIds[endIdx - 1]\n        ret = new DarkForestTypes.PlanetExtendedInfo[](endIdx - startIdx);\n        for (uint256 i = startIdx; i < endIdx; i++) {\n            ret[i - startIdx] = planetsExtendedInfo[planetIds[i]];\n        }\n    }\n\n    function getNPlayers() public view returns (uint256) {\n        return playerIds.length;\n    }\n\n    function bulkGetPlayers(uint256 startIdx, uint256 endIdx)\n        public\n        view\n        returns (address[] memory ret)\n    {\n        // return slice of players array from startIdx through endIdx - 1\n        ret = new address[](endIdx - startIdx);\n        for (uint256 i = startIdx; i < endIdx; i++) {\n            ret[i - startIdx] = playerIds[i];\n        }\n    }\n\n    function getPlanetLevelThresholds() public view returns (uint256[] memory) {\n        return planetLevelThresholds;\n    }\n\n    function getPlanetTypeThresholds() public view returns (uint256[] memory) {\n        return planetTypeThresholds;\n    }\n\n    function getPlanetCumulativeRarities()\n        public\n        view\n        returns (uint256[] memory)\n    {\n        return cumulativeRarities;\n    }\n\n    function getPlanetArrivals(uint256 _location)\n        public\n        view\n        returns (DarkForestTypes.ArrivalData[] memory ret)\n    {\n        uint256 arrivalCount = 0;\n        for (uint256 i = 0; i < planetEvents[_location].length; i += 1) {\n            if (\n                planetEvents[_location][i].eventType ==\n                DarkForestTypes.PlanetEventType.ARRIVAL\n            ) {\n                arrivalCount += 1;\n            }\n        }\n        ret = new DarkForestTypes.ArrivalData[](arrivalCount);\n        uint256 count = 0;\n        for (uint256 i = 0; i < planetEvents[_location].length; i += 1) {\n            if (\n                planetEvents[_location][i].eventType ==\n                DarkForestTypes.PlanetEventType.ARRIVAL\n            ) {\n                ret[count] = planetArrivals[planetEvents[_location][i].id];\n                count++;\n            }\n        }\n    }\n\n    function bulkGetPlanetArrivals(uint256 startIdx, uint256 endIdx)\n        public\n        view\n        returns (DarkForestTypes.ArrivalData[][] memory)\n    {\n        // return array of planets corresponding to planetIds[startIdx] through planetIds[endIdx - 1]\n\n\n            DarkForestTypes.ArrivalData[][] memory ret\n         = new DarkForestTypes.ArrivalData[][](endIdx - startIdx);\n        for (uint256 i = startIdx; i < endIdx; i++) {\n            ret[i - startIdx] = getPlanetArrivals(planetIds[i]);\n        }\n        return ret;\n    }\n\n    function getDefaultStats()\n        public\n        view\n        returns (DarkForestTypes.PlanetDefaultStats[] memory)\n    {\n\n            DarkForestTypes.PlanetDefaultStats[] memory ret\n         = new DarkForestTypes.PlanetDefaultStats[](\n            planetLevelThresholds.length\n        );\n        for (uint256 i = 0; i < planetLevelThresholds.length; i += 1) {\n            ret[i] = planetDefaultStats[i];\n        }\n        return ret;\n    }\n\n    function getPlanetCounts() public view returns (uint256[] memory) {\n        return initializedPlanetCountByLevel;\n    }\n\n    function getUpgrades()\n        public\n        view\n        returns (DarkForestTypes.Upgrade[4][3] memory)\n    {\n        return upgrades;\n    }\n\n    // private utilities\n\n    function _getPlanetType()\n        public\n        pure\n        returns (\n            /* uint256 _location */\n            DarkForestTypes.PlanetType\n        )\n    {\n        return DarkForestTypes.PlanetType.PLANET;\n    }\n\n    function _locationIdValid(uint256 _loc) public pure returns (bool) {\n        return (_loc <\n            (21888242871839275222246405745257275088548364400416034343698204186575808495617 /\n                PLANET_RARITY));\n    }\n\n    // Private helpers that modify state\n    function _updateWorldRadius() private {\n        worldRadius = DarkForestUtils._getRadius(\n            initializedPlanetCountByLevel,\n            cumulativeRarities,\n            playerIds.length,\n            target4RadiusConstant,\n            target5RadiusConstant\n        );\n    }\n\n    function _initializePlanet(uint256 _location, bool _isHomePlanet) private {\n        require(_locationIdValid(_location), \"Not a valid planet location\");\n\n        (\n            uint256 _level,\n            DarkForestTypes.PlanetResource _resource\n        ) = DarkForestUtils._getPlanetLevelAndResource(\n            _location,\n            SILVER_RARITY,\n            planetLevelThresholds,\n            planetDefaultStats\n        );\n\n        DarkForestTypes.PlanetType _type = _getPlanetType();\n\n        if (_isHomePlanet) {\n            require(_level == 0, \"Can only initialize on planet level 0\");\n        }\n\n        DarkForestPlanet.initializePlanet(\n            planets[_location],\n            planetsExtendedInfo[_location],\n            planetDefaultStats[_level],\n            VERSION,\n            _type,\n            _resource,\n            _level,\n            _location\n        );\n        planetIds.push(_location);\n        initializedPlanetCountByLevel[_level] += 1;\n    }\n\n    //////////////////////\n    /// Game Mechanics ///\n    //////////////////////\n\n    function refreshPlanet(uint256 _location)\n        public\n        onlyWhitelisted\n        notPaused\n        notEnded\n    {\n        require(\n            planetsExtendedInfo[_location].isInitialized,\n            \"Planet has not been initialized\"\n        );\n\n        // apply all pending events until the current timestamp\n        DarkForestLazyUpdate._applyPendingEvents(\n            _location,\n            planetEvents,\n            planets,\n            planetsExtendedInfo,\n            planetArrivals\n        );\n\n        // we need to do another updatePlanet call to sync the planet's data\n        // to current time.\n        DarkForestLazyUpdate.updatePlanet(\n            planets[_location],\n            planetsExtendedInfo[_location],\n            block.timestamp\n        );\n    }\n\n    function initializePlayer(\n        uint256[2] memory _a,\n        uint256[2][2] memory _b,\n        uint256[2] memory _c,\n        uint256[3] memory _input\n    ) public onlyWhitelisted notPaused notEnded {\n        if (!DISABLE_ZK_CHECK) {\n            require(\n                Verifier.verifyInitProof(_a, _b, _c, _input),\n                \"Failed init proof check\"\n            );\n        }\n\n        uint256 _location = _input[0];\n        // uint256 _perlin = _input[1];\n        uint256 _radius = _input[2];\n\n        require(\n            !isPlayerInitialized[msg.sender],\n            \"Player is already initialized\"\n        );\n        require(\n            !planetsExtendedInfo[_location].isInitialized,\n            \"Planet is already initialized\"\n        );\n        require(\n            _radius <= worldRadius,\n            \"Init radius is bigger than the current world radius\"\n        );\n        // require(\n        //     _perlin <= PERLIN_THRESHOLD,\n        //     \"Init not allowed in perlin value above the threshold\"\n        // );\n\n        // Initialize player data\n        isPlayerInitialized[msg.sender] = true;\n        playerIds.push(msg.sender);\n\n        // Initialize planet information\n        _initializePlanet(_location, true);\n        planets[_location].owner = msg.sender;\n        planets[_location].population = 75000;\n        _updateWorldRadius();\n        emit PlayerInitialized(msg.sender, _location);\n    }\n\n    function move(\n        uint256[2] memory _a,\n        uint256[2][2] memory _b,\n        uint256[2] memory _c,\n        uint256[7] memory _input\n    ) public notPaused notEnded {\n        uint256 _oldLoc = _input[0];\n        uint256 _newLoc = _input[1];\n        uint256 _newPerlin = _input[2];\n        uint256 _newRadius = _input[3];\n        uint256 _maxDist = _input[4];\n        uint256 _popMoved = _input[5];\n        uint256 _silverMoved = _input[6];\n\n        if (!DISABLE_ZK_CHECK) {\n            uint256[5] memory _proofInput = [\n                _oldLoc,\n                _newLoc,\n                _newPerlin,\n                _newRadius,\n                _maxDist\n            ];\n            require(\n                Verifier.verifyMoveProof(_a, _b, _c, _proofInput),\n                \"Failed move proof check\"\n            );\n        }\n\n        // check radius\n        require(_newRadius <= worldRadius, \"Attempting to move out of bounds\");\n\n        // Only perform if the toPlanet have never initialized previously\n        if (!planetsExtendedInfo[_newLoc].isInitialized) {\n            _initializePlanet(_newLoc, false);\n        } else {\n            // need to do this so people can't deny service to their own planets with gas limit\n            refreshPlanet(_newLoc);\n            require(planetEvents[_newLoc].length < 8, \"Planet is rate-limited\");\n        }\n\n        // Refresh fromPlanet first before doing any action on it\n        refreshPlanet(_oldLoc);\n        DarkForestPlanet.move(\n            _oldLoc,\n            _newLoc,\n            _maxDist,\n            _popMoved,\n            _silverMoved,\n            GLOBAL_SPEED_IN_HUNDRETHS,\n            planetEventsCount,\n            planets,\n            planetEvents,\n            planetArrivals\n        );\n\n        planetEventsCount++;\n\n        _updateWorldRadius();\n        emit ArrivalQueued(planetEventsCount - 1);\n    }\n\n    function upgradePlanet(uint256 _location, uint256 _branch)\n        public\n        notPaused\n        notEnded\n    {\n        // _branch specifies which of the three upgrade branches player is leveling up\n        // 0 improves silver production and capacity\n        // 1 improves population\n        // 2 improves range\n        refreshPlanet(_location);\n        DarkForestPlanet.upgradePlanet(\n            planets[_location],\n            planetsExtendedInfo[_location],\n            _branch,\n            planetDefaultStats,\n            upgrades\n        );\n        emit PlanetUpgraded(_location);\n    }\n}\n",
  "sourcePath": "contracts/DarkForestCore.sol",
  "abi": [
    {
      "anonymous": false,
      "inputs": [
        {
          "indexed": false,
          "internalType": "uint256",
          "name": "arrivalId",
          "type": "uint256"
        }
      ],
      "name": "ArrivalQueued",
      "type": "event"
    },
    {
      "anonymous": false,
      "inputs": [
        {
          "indexed": false,
          "internalType": "uint256",
          "name": "loc",
          "type": "uint256"
        }
      ],
      "name": "PlanetUpgraded",
      "type": "event"
    },
    {
      "anonymous": false,
      "inputs": [
        {
          "indexed": false,
          "internalType": "address",
          "name": "player",
          "type": "address"
        },
        {
          "indexed": false,
          "internalType": "uint256",
          "name": "loc",
          "type": "uint256"
        }
      ],
      "name": "PlayerInitialized",
      "type": "event"
    },
    {
      "inputs": [],
      "name": "DISABLE_ZK_CHECK",
      "outputs": [
        {
          "internalType": "bool",
          "name": "",
          "type": "bool"
        }
      ],
      "stateMutability": "view",
      "type": "function"
    },
    {
      "inputs": [],
      "name": "ENERGY_CAP",
      "outputs": [
        {
          "internalType": "uint256",
          "name": "",
          "type": "uint256"
        }
      ],
      "stateMutability": "view",
      "type": "function"
    },
    {
      "inputs": [],
      "name": "ENERGY_PER_SECOND",
      "outputs": [
        {
          "internalType": "uint256",
          "name": "",
          "type": "uint256"
        }
      ],
      "stateMutability": "view",
      "type": "function"
    },
    {
      "inputs": [],
      "name": "GLOBAL_SPEED_IN_HUNDRETHS",
      "outputs": [
        {
          "internalType": "uint256",
          "name": "",
          "type": "uint256"
        }
      ],
      "stateMutability": "view",
      "type": "function"
    },
    {
      "inputs": [],
      "name": "PERLIN_THRESHOLD",
      "outputs": [
        {
          "internalType": "uint256",
          "name": "",
          "type": "uint256"
        }
      ],
      "stateMutability": "view",
      "type": "function"
    },
    {
      "inputs": [],
      "name": "PLANET_RARITY",
      "outputs": [
        {
          "internalType": "uint256",
          "name": "",
          "type": "uint256"
        }
      ],
      "stateMutability": "view",
      "type": "function"
    },
    {
      "inputs": [],
      "name": "SILVER_RARITY",
      "outputs": [
        {
          "internalType": "uint256",
          "name": "",
          "type": "uint256"
        }
      ],
      "stateMutability": "view",
      "type": "function"
    },
    {
      "inputs": [],
      "name": "TRADING_POST_BARBARIANS",
      "outputs": [
        {
          "internalType": "uint256",
          "name": "",
          "type": "uint256"
        }
      ],
      "stateMutability": "view",
      "type": "function"
    },
    {
      "inputs": [],
      "name": "TRADING_POST_RARITY",
      "outputs": [
        {
          "internalType": "uint256",
          "name": "",
          "type": "uint256"
        }
      ],
      "stateMutability": "view",
      "type": "function"
    },
    {
      "inputs": [],
      "name": "VERSION",
      "outputs": [
        {
          "internalType": "uint256",
          "name": "",
          "type": "uint256"
        }
      ],
      "stateMutability": "view",
      "type": "function"
    },
    {
      "inputs": [],
      "name": "_getPlanetType",
      "outputs": [
        {
          "internalType": "enum DarkForestTypes.PlanetType",
          "name": "",
          "type": "uint8"
        }
      ],
      "stateMutability": "pure",
      "type": "function"
    },
    {
      "inputs": [
        {
          "internalType": "uint256",
          "name": "_loc",
          "type": "uint256"
        }
      ],
      "name": "_locationIdValid",
      "outputs": [
        {
          "internalType": "bool",
          "name": "",
          "type": "bool"
        }
      ],
      "stateMutability": "pure",
      "type": "function"
    },
    {
      "inputs": [],
      "name": "adminAddress",
      "outputs": [
        {
          "internalType": "address",
          "name": "",
          "type": "address"
        }
      ],
      "stateMutability": "view",
      "type": "function"
    },
    {
      "inputs": [
        {
          "internalType": "uint256",
          "name": "startIdx",
          "type": "uint256"
        },
        {
          "internalType": "uint256",
          "name": "endIdx",
          "type": "uint256"
        }
      ],
      "name": "bulkGetPlanetArrivals",
      "outputs": [
        {
          "components": [
            {
              "internalType": "uint256",
              "name": "id",
              "type": "uint256"
            },
            {
              "internalType": "address",
              "name": "player",
              "type": "address"
            },
            {
              "internalType": "uint256",
              "name": "fromPlanet",
              "type": "uint256"
            },
            {
              "internalType": "uint256",
              "name": "toPlanet",
              "type": "uint256"
            },
            {
              "internalType": "uint256",
              "name": "popArriving",
              "type": "uint256"
            },
            {
              "internalType": "uint256",
              "name": "silverMoved",
              "type": "uint256"
            },
            {
              "internalType": "uint256",
              "name": "departureTime",
              "type": "uint256"
            },
            {
              "internalType": "uint256",
              "name": "arrivalTime",
              "type": "uint256"
            }
          ],
          "internalType": "struct DarkForestTypes.ArrivalData[][]",
          "name": "",
          "type": "tuple[][]"
        }
      ],
      "stateMutability": "view",
      "type": "function"
    },
    {
      "inputs": [
        {
          "internalType": "uint256",
          "name": "startIdx",
          "type": "uint256"
        },
        {
          "internalType": "uint256",
          "name": "endIdx",
          "type": "uint256"
        }
      ],
      "name": "bulkGetPlanetIds",
      "outputs": [
        {
          "internalType": "uint256[]",
          "name": "ret",
          "type": "uint256[]"
        }
      ],
      "stateMutability": "view",
      "type": "function"
    },
    {
      "inputs": [
        {
          "internalType": "uint256",
          "name": "startIdx",
          "type": "uint256"
        },
        {
          "internalType": "uint256",
          "name": "endIdx",
          "type": "uint256"
        }
      ],
      "name": "bulkGetPlanets",
      "outputs": [
        {
          "components": [
            {
              "internalType": "address",
              "name": "owner",
              "type": "address"
            },
            {
              "internalType": "uint256",
              "name": "range",
              "type": "uint256"
            },
            {
              "internalType": "uint256",
              "name": "population",
              "type": "uint256"
            },
            {
              "internalType": "uint256",
              "name": "populationCap",
              "type": "uint256"
            },
            {
              "internalType": "uint256",
              "name": "populationGrowth",
              "type": "uint256"
            },
            {
              "internalType": "enum DarkForestTypes.PlanetResource",
              "name": "planetResource",
              "type": "uint8"
            },
            {
              "internalType": "uint256",
              "name": "silverCap",
              "type": "uint256"
            },
            {
              "internalType": "uint256",
              "name": "silverGrowth",
              "type": "uint256"
            },
            {
              "internalType": "uint256",
              "name": "silver",
              "type": "uint256"
            },
            {
              "internalType": "uint256",
              "name": "silverMax",
              "type": "uint256"
            },
            {
              "internalType": "uint256",
              "name": "planetLevel",
              "type": "uint256"
            },
            {
              "internalType": "enum DarkForestTypes.PlanetType",
              "name": "planetType",
              "type": "uint8"
            }
          ],
          "internalType": "struct DarkForestTypes.Planet[]",
          "name": "ret",
          "type": "tuple[]"
        }
      ],
      "stateMutability": "view",
      "type": "function"
    },
    {
      "inputs": [
        {
          "internalType": "uint256",
          "name": "startIdx",
          "type": "uint256"
        },
        {
          "internalType": "uint256",
          "name": "endIdx",
          "type": "uint256"
        }
      ],
      "name": "bulkGetPlanetsExtendedInfo",
      "outputs": [
        {
          "components": [
            {
              "internalType": "bool",
              "name": "isInitialized",
              "type": "bool"
            },
            {
              "internalType": "uint256",
              "name": "version",
              "type": "uint256"
            },
            {
              "internalType": "uint256",
              "name": "lastUpdated",
              "type": "uint256"
            },
            {
              "internalType": "uint256",
              "name": "upgradeState0",
              "type": "uint256"
            },
            {
              "internalType": "uint256",
              "name": "upgradeState1",
              "type": "uint256"
            },
            {
              "internalType": "uint256",
              "name": "upgradeState2",
              "type": "uint256"
            }
          ],
          "internalType": "struct DarkForestTypes.PlanetExtendedInfo[]",
          "name": "ret",
          "type": "tuple[]"
        }
      ],
      "stateMutability": "view",
      "type": "function"
    },
    {
      "inputs": [
        {
          "internalType": "uint256",
          "name": "startIdx",
          "type": "uint256"
        },
        {
          "internalType": "uint256",
          "name": "endIdx",
          "type": "uint256"
        }
      ],
      "name": "bulkGetPlayers",
      "outputs": [
        {
          "internalType": "address[]",
          "name": "ret",
          "type": "address[]"
        }
      ],
      "stateMutability": "view",
      "type": "function"
    },
    {
      "inputs": [
        {
          "internalType": "address",
          "name": "_newAdmin",
          "type": "address"
        }
      ],
      "name": "changeAdmin",
      "outputs": [],
      "stateMutability": "nonpayable",
      "type": "function"
    },
    {
      "inputs": [
        {
          "internalType": "uint256",
          "name": "_newGameEnd",
          "type": "uint256"
        }
      ],
      "name": "changeGameEndTime",
      "outputs": [],
      "stateMutability": "nonpayable",
      "type": "function"
    },
    {
      "inputs": [
        {
          "internalType": "uint256",
          "name": "_newConstant",
          "type": "uint256"
        }
      ],
      "name": "changeTarget4RadiusConstant",
      "outputs": [],
      "stateMutability": "nonpayable",
      "type": "function"
    },
    {
      "inputs": [
        {
          "internalType": "uint256",
          "name": "_newConstant",
          "type": "uint256"
        }
      ],
      "name": "changeTarget5RadiusConstant",
      "outputs": [],
      "stateMutability": "nonpayable",
      "type": "function"
    },
    {
      "inputs": [
        {
          "internalType": "uint256",
          "name": "",
          "type": "uint256"
        }
      ],
      "name": "cumulativeRarities",
      "outputs": [
        {
          "internalType": "uint256",
          "name": "",
          "type": "uint256"
        }
      ],
      "stateMutability": "view",
      "type": "function"
    },
    {
      "inputs": [],
      "name": "getDefaultStats",
      "outputs": [
        {
          "components": [
            {
              "internalType": "string",
              "name": "label",
              "type": "string"
            },
            {
              "internalType": "uint256",
              "name": "populationCap",
              "type": "uint256"
            },
            {
              "internalType": "uint256",
              "name": "populationGrowth",
              "type": "uint256"
            },
            {
              "internalType": "uint256",
              "name": "range",
              "type": "uint256"
            },
            {
              "internalType": "uint256",
              "name": "silverGrowth",
              "type": "uint256"
            },
            {
              "internalType": "uint256",
              "name": "silverCap",
              "type": "uint256"
            },
            {
              "internalType": "uint256",
              "name": "silverMax",
              "type": "uint256"
            },
            {
              "internalType": "uint256",
              "name": "barbarianPercentage",
              "type": "uint256"
            },
            {
              "internalType": "uint256",
              "name": "energyCost",
              "type": "uint256"
            }
          ],
          "internalType": "struct DarkForestTypes.PlanetDefaultStats[]",
          "name": "",
          "type": "tuple[]"
        }
      ],
      "stateMutability": "view",
      "type": "function"
    },
    {
      "inputs": [],
      "name": "getNPlanets",
      "outputs": [
        {
          "internalType": "uint256",
          "name": "",
          "type": "uint256"
        }
      ],
      "stateMutability": "view",
      "type": "function"
    },
    {
      "inputs": [],
      "name": "getNPlayers",
      "outputs": [
        {
          "internalType": "uint256",
          "name": "",
          "type": "uint256"
        }
      ],
      "stateMutability": "view",
      "type": "function"
    },
    {
      "inputs": [
        {
          "internalType": "uint256",
          "name": "_location",
          "type": "uint256"
        }
      ],
      "name": "getPlanetArrivals",
      "outputs": [
        {
          "components": [
            {
              "internalType": "uint256",
              "name": "id",
              "type": "uint256"
            },
            {
              "internalType": "address",
              "name": "player",
              "type": "address"
            },
            {
              "internalType": "uint256",
              "name": "fromPlanet",
              "type": "uint256"
            },
            {
              "internalType": "uint256",
              "name": "toPlanet",
              "type": "uint256"
            },
            {
              "internalType": "uint256",
              "name": "popArriving",
              "type": "uint256"
            },
            {
              "internalType": "uint256",
              "name": "silverMoved",
              "type": "uint256"
            },
            {
              "internalType": "uint256",
              "name": "departureTime",
              "type": "uint256"
            },
            {
              "internalType": "uint256",
              "name": "arrivalTime",
              "type": "uint256"
            }
          ],
          "internalType": "struct DarkForestTypes.ArrivalData[]",
          "name": "ret",
          "type": "tuple[]"
        }
      ],
      "stateMutability": "view",
      "type": "function"
    },
    {
      "inputs": [],
      "name": "getPlanetCounts",
      "outputs": [
        {
          "internalType": "uint256[]",
          "name": "",
          "type": "uint256[]"
        }
      ],
      "stateMutability": "view",
      "type": "function"
    },
    {
      "inputs": [],
      "name": "getPlanetCumulativeRarities",
      "outputs": [
        {
          "internalType": "uint256[]",
          "name": "",
          "type": "uint256[]"
        }
      ],
      "stateMutability": "view",
      "type": "function"
    },
    {
      "inputs": [],
      "name": "getPlanetLevelThresholds",
      "outputs": [
        {
          "internalType": "uint256[]",
          "name": "",
          "type": "uint256[]"
        }
      ],
      "stateMutability": "view",
      "type": "function"
    },
    {
      "inputs": [],
      "name": "getPlanetTypeThresholds",
      "outputs": [
        {
          "internalType": "uint256[]",
          "name": "",
          "type": "uint256[]"
        }
      ],
      "stateMutability": "view",
      "type": "function"
    },
    {
      "inputs": [],
      "name": "getUpgrades",
      "outputs": [
        {
          "components": [
            {
              "internalType": "uint256",
              "name": "popCapMultiplier",
              "type": "uint256"
            },
            {
              "internalType": "uint256",
              "name": "popGroMultiplier",
              "type": "uint256"
            },
            {
              "internalType": "uint256",
              "name": "silverCapMultiplier",
              "type": "uint256"
            },
            {
              "internalType": "uint256",
              "name": "silverGroMultiplier",
              "type": "uint256"
            },
            {
              "internalType": "uint256",
              "name": "silverMaxMultiplier",
              "type": "uint256"
            },
            {
              "internalType": "uint256",
              "name": "rangeMultiplier",
              "type": "uint256"
            },
            {
              "internalType": "uint256",
              "name": "silverCostMultiplier",
              "type": "uint256"
            }
          ],
          "internalType": "struct DarkForestTypes.Upgrade[4][3]",
          "name": "",
          "type": "tuple[4][3]"
        }
      ],
      "stateMutability": "view",
      "type": "function"
    },
    {
      "inputs": [
        {
          "internalType": "address",
          "name": "_adminAddress",
          "type": "address"
        },
        {
          "internalType": "address",
          "name": "_whitelistAddress",
          "type": "address"
        },
        {
          "internalType": "bool",
          "name": "_disableZKCheck",
          "type": "bool"
        }
      ],
      "name": "initialize",
      "outputs": [],
      "stateMutability": "nonpayable",
      "type": "function"
    },
    {
      "inputs": [
        {
          "internalType": "uint256[2]",
          "name": "_a",
          "type": "uint256[2]"
        },
        {
          "internalType": "uint256[2][2]",
          "name": "_b",
          "type": "uint256[2][2]"
        },
        {
          "internalType": "uint256[2]",
          "name": "_c",
          "type": "uint256[2]"
        },
        {
          "internalType": "uint256[3]",
          "name": "_input",
          "type": "uint256[3]"
        }
      ],
      "name": "initializePlayer",
      "outputs": [],
      "stateMutability": "nonpayable",
      "type": "function"
    },
    {
      "inputs": [
        {
          "internalType": "uint256",
          "name": "",
          "type": "uint256"
        }
      ],
      "name": "initializedPlanetCountByLevel",
      "outputs": [
        {
          "internalType": "uint256",
          "name": "",
          "type": "uint256"
        }
      ],
      "stateMutability": "view",
      "type": "function"
    },
    {
      "inputs": [
        {
          "internalType": "address",
          "name": "",
          "type": "address"
        }
      ],
      "name": "isPlayerInitialized",
      "outputs": [
        {
          "internalType": "bool",
          "name": "",
          "type": "bool"
        }
      ],
      "stateMutability": "view",
      "type": "function"
    },
    {
      "inputs": [
        {
          "internalType": "uint256[2]",
          "name": "_a",
          "type": "uint256[2]"
        },
        {
          "internalType": "uint256[2][2]",
          "name": "_b",
          "type": "uint256[2][2]"
        },
        {
          "internalType": "uint256[2]",
          "name": "_c",
          "type": "uint256[2]"
        },
        {
          "internalType": "uint256[7]",
          "name": "_input",
          "type": "uint256[7]"
        }
      ],
      "name": "move",
      "outputs": [],
      "stateMutability": "nonpayable",
      "type": "function"
    },
    {
      "inputs": [],
      "name": "pause",
      "outputs": [],
      "stateMutability": "nonpayable",
      "type": "function"
    },
    {
      "inputs": [],
      "name": "paused",
      "outputs": [
        {
          "internalType": "bool",
          "name": "",
          "type": "bool"
        }
      ],
      "stateMutability": "view",
      "type": "function"
    },
    {
      "inputs": [
        {
          "internalType": "uint256",
          "name": "",
          "type": "uint256"
        }
      ],
      "name": "planetArrivals",
      "outputs": [
        {
          "internalType": "uint256",
          "name": "id",
          "type": "uint256"
        },
        {
          "internalType": "address",
          "name": "player",
          "type": "address"
        },
        {
          "internalType": "uint256",
          "name": "fromPlanet",
          "type": "uint256"
        },
        {
          "internalType": "uint256",
          "name": "toPlanet",
          "type": "uint256"
        },
        {
          "internalType": "uint256",
          "name": "popArriving",
          "type": "uint256"
        },
        {
          "internalType": "uint256",
          "name": "silverMoved",
          "type": "uint256"
        },
        {
          "internalType": "uint256",
          "name": "departureTime",
          "type": "uint256"
        },
        {
          "internalType": "uint256",
          "name": "arrivalTime",
          "type": "uint256"
        }
      ],
      "stateMutability": "view",
      "type": "function"
    },
    {
      "inputs": [
        {
          "internalType": "uint256",
          "name": "",
          "type": "uint256"
        }
      ],
      "name": "planetDefaultStats",
      "outputs": [
        {
          "internalType": "string",
          "name": "label",
          "type": "string"
        },
        {
          "internalType": "uint256",
          "name": "populationCap",
          "type": "uint256"
        },
        {
          "internalType": "uint256",
          "name": "populationGrowth",
          "type": "uint256"
        },
        {
          "internalType": "uint256",
          "name": "range",
          "type": "uint256"
        },
        {
          "internalType": "uint256",
          "name": "silverGrowth",
          "type": "uint256"
        },
        {
          "internalType": "uint256",
          "name": "silverCap",
          "type": "uint256"
        },
        {
          "internalType": "uint256",
          "name": "silverMax",
          "type": "uint256"
        },
        {
          "internalType": "uint256",
          "name": "barbarianPercentage",
          "type": "uint256"
        },
        {
          "internalType": "uint256",
          "name": "energyCost",
          "type": "uint256"
        }
      ],
      "stateMutability": "view",
      "type": "function"
    },
    {
      "inputs": [
        {
          "internalType": "uint256",
          "name": "",
          "type": "uint256"
        },
        {
          "internalType": "uint256",
          "name": "",
          "type": "uint256"
        }
      ],
      "name": "planetEvents",
      "outputs": [
        {
          "internalType": "uint256",
          "name": "id",
          "type": "uint256"
        },
        {
          "internalType": "enum DarkForestTypes.PlanetEventType",
          "name": "eventType",
          "type": "uint8"
        },
        {
          "internalType": "uint256",
          "name": "timeTrigger",
          "type": "uint256"
        },
        {
          "internalType": "uint256",
          "name": "timeAdded",
          "type": "uint256"
        }
      ],
      "stateMutability": "view",
      "type": "function"
    },
    {
      "inputs": [],
      "name": "planetEventsCount",
      "outputs": [
        {
          "internalType": "uint256",
          "name": "",
          "type": "uint256"
        }
      ],
      "stateMutability": "view",
      "type": "function"
    },
    {
      "inputs": [
        {
          "internalType": "uint256",
          "name": "",
          "type": "uint256"
        }
      ],
      "name": "planetIds",
      "outputs": [
        {
          "internalType": "uint256",
          "name": "",
          "type": "uint256"
        }
      ],
      "stateMutability": "view",
      "type": "function"
    },
    {
      "inputs": [
        {
          "internalType": "uint256",
          "name": "",
          "type": "uint256"
        }
      ],
      "name": "planetLevelThresholds",
      "outputs": [
        {
          "internalType": "uint256",
          "name": "",
          "type": "uint256"
        }
      ],
      "stateMutability": "view",
      "type": "function"
    },
    {
      "inputs": [
        {
          "internalType": "uint256",
          "name": "",
          "type": "uint256"
        }
      ],
      "name": "planetTypeThresholds",
      "outputs": [
        {
          "internalType": "uint256",
          "name": "",
          "type": "uint256"
        }
      ],
      "stateMutability": "view",
      "type": "function"
    },
    {
      "inputs": [
        {
          "internalType": "uint256",
          "name": "",
          "type": "uint256"
        }
      ],
      "name": "planets",
      "outputs": [
        {
          "internalType": "address",
          "name": "owner",
          "type": "address"
        },
        {
          "internalType": "uint256",
          "name": "range",
          "type": "uint256"
        },
        {
          "internalType": "uint256",
          "name": "population",
          "type": "uint256"
        },
        {
          "internalType": "uint256",
          "name": "populationCap",
          "type": "uint256"
        },
        {
          "internalType": "uint256",
          "name": "populationGrowth",
          "type": "uint256"
        },
        {
          "internalType": "enum DarkForestTypes.PlanetResource",
          "name": "planetResource",
          "type": "uint8"
        },
        {
          "internalType": "uint256",
          "name": "silverCap",
          "type": "uint256"
        },
        {
          "internalType": "uint256",
          "name": "silverGrowth",
          "type": "uint256"
        },
        {
          "internalType": "uint256",
          "name": "silver",
          "type": "uint256"
        },
        {
          "internalType": "uint256",
          "name": "silverMax",
          "type": "uint256"
        },
        {
          "internalType": "uint256",
          "name": "planetLevel",
          "type": "uint256"
        },
        {
          "internalType": "enum DarkForestTypes.PlanetType",
          "name": "planetType",
          "type": "uint8"
        }
      ],
      "stateMutability": "view",
      "type": "function"
    },
    {
      "inputs": [
        {
          "internalType": "uint256",
          "name": "",
          "type": "uint256"
        }
      ],
      "name": "planetsExtendedInfo",
      "outputs": [
        {
          "internalType": "bool",
          "name": "isInitialized",
          "type": "bool"
        },
        {
          "internalType": "uint256",
          "name": "version",
          "type": "uint256"
        },
        {
          "internalType": "uint256",
          "name": "lastUpdated",
          "type": "uint256"
        },
        {
          "internalType": "uint256",
          "name": "upgradeState0",
          "type": "uint256"
        },
        {
          "internalType": "uint256",
          "name": "upgradeState1",
          "type": "uint256"
        },
        {
          "internalType": "uint256",
          "name": "upgradeState2",
          "type": "uint256"
        }
      ],
      "stateMutability": "view",
      "type": "function"
    },
    {
      "inputs": [
        {
          "internalType": "uint256",
          "name": "",
          "type": "uint256"
        }
      ],
      "name": "playerIds",
      "outputs": [
        {
          "internalType": "address",
          "name": "",
          "type": "address"
        }
      ],
      "stateMutability": "view",
      "type": "function"
    },
    {
      "inputs": [
        {
          "internalType": "uint256",
          "name": "_location",
          "type": "uint256"
        }
      ],
      "name": "refreshPlanet",
      "outputs": [],
      "stateMutability": "nonpayable",
      "type": "function"
    },
    {
      "inputs": [],
      "name": "unpause",
      "outputs": [],
      "stateMutability": "nonpayable",
      "type": "function"
    },
    {
      "inputs": [
        {
          "internalType": "uint256",
          "name": "_location",
          "type": "uint256"
        },
        {
          "internalType": "uint256",
          "name": "_branch",
          "type": "uint256"
        }
      ],
      "name": "upgradePlanet",
      "outputs": [],
      "stateMutability": "nonpayable",
      "type": "function"
    },
    {
      "inputs": [
        {
          "internalType": "uint256",
          "name": "",
          "type": "uint256"
        },
        {
          "internalType": "uint256",
          "name": "",
          "type": "uint256"
        }
      ],
      "name": "upgrades",
      "outputs": [
        {
          "internalType": "uint256",
          "name": "popCapMultiplier",
          "type": "uint256"
        },
        {
          "internalType": "uint256",
          "name": "popGroMultiplier",
          "type": "uint256"
        },
        {
          "internalType": "uint256",
          "name": "silverCapMultiplier",
          "type": "uint256"
        },
        {
          "internalType": "uint256",
          "name": "silverGroMultiplier",
          "type": "uint256"
        },
        {
          "internalType": "uint256",
          "name": "silverMaxMultiplier",
          "type": "uint256"
        },
        {
          "internalType": "uint256",
          "name": "rangeMultiplier",
          "type": "uint256"
        },
        {
          "internalType": "uint256",
          "name": "silverCostMultiplier",
          "type": "uint256"
        }
      ],
      "stateMutability": "view",
      "type": "function"
    },
    {
      "inputs": [],
      "name": "worldRadius",
      "outputs": [
        {
          "internalType": "uint256",
          "name": "",
          "type": "uint256"
        }
      ],
      "stateMutability": "view",
      "type": "function"
    }
  ],
  "bytecode": "0x608060405234801561001057600080fd5b50615d0e80620000216000396000f3fe608060405234801561001057600080fd5b50600436106103425760003560e01c80638a05b329116101b8578063c012b11211610104578063de2edb91116100a2578063fbb7fc6c1161007c578063fbb7fc6c14610a79578063fc6f946814610a97578063fc96355d14610ab5578063ffa1ad7414610ad357610342565b8063de2edb9114610a21578063deb1b5d114610a3f578063e4bbb5a814610a5d57610342565b8063c9359491116100de578063c935949114610968578063ccf738e91461099e578063d9c1041f146109d3578063dacb6135146109f157610342565b8063c012b112146108ea578063c68b81261461091a578063c8d503ea1461093857610342565b8063ab23032111610171578063b5549e641161014b578063b5549e6414610858578063b8b0fa9114610890578063bb4908f2146108ae578063bb5a86bd146108cc57610342565b8063ab230321146107d7578063ad4890911461080a578063ae3f86191461083a57610342565b80638a05b329146106ef5780638af9d5621461070d5780638f2839701461072b5780639184f0b614610747578063975de61314610777578063aaca42e9146107a757610342565b80633f4ba83a1161029257806373a853811161023057806378d4ce951161020a57806378d4ce951461068f5780637c58580f146106ab5780638151e1d2146106c95780638456cb59146106e557610342565b806373a853811461061e57806376af38b41461063a57806378d1742b1461067157610342565b80635c975abb1161026c5780635c975abb14610594578063684ee29d146105b2578063695bd00c146105d05780636c7ffeec146105ee57610342565b80633f4ba83a1461053c57806340a72788146105465780634eb0e9591461057657610342565b806310d4abf2116102ff578063221f7764116102d9578063221f77641461048557806326c1e750146104b557806336b3d148146104f05780633f324cf31461052057610342565b806310d4abf21461040757806316a85e08146104375780631f2836b71461045557610342565b8063039e4e741461034757806304d74a391461036357806305b86be5146103935780630767751a146103b157806308d2e95a146103cd5780630af80778146103eb575b600080fd5b610361600480360381019061035c9190613c16565b610af1565b005b61037d60048036038101906103789190613ca4565b610b8b565b60405161038a9190614f55565b60405180910390f35b61039b610ca0565b6040516103a89190615027565b60405180910390f35b6103cb60048036038101906103c69190613c16565b610cf8565b005b6103d5610d92565b6040516103e29190614f18565b60405180910390f35b61040560048036038101906104009190613b88565b610f41565b005b610421600480360381019061041c9190613c16565b61134d565b60405161042e919061550f565b60405180910390f35b61043f61136e565b60405161044c9190615027565b60405180910390f35b61046f600480360381019061046a9190613c16565b6113c6565b60405161047c919061550f565b60405180910390f35b61049f600480360381019061049a9190613c16565b6113e7565b6040516104ac919061550f565b60405180910390f35b6104cf60048036038101906104ca9190613c16565b611408565b6040516104e79c9b9a99989796959493929190614dc1565b60405180910390f35b61050a60048036038101906105059190613c16565b6114a2565b604051610517919061550f565b60405180910390f35b61053a60048036038101906105359190613c16565b6114c3565b005b6105446117a9565b005b610560600480360381019061055b9190613ca4565b6118a5565b60405161056d9190614e9d565b60405180910390f35b61057e611957565b60405161058b919061550f565b60405180910390f35b61059c61195d565b6040516105a9919061509c565b60405180910390f35b6105ba611970565b6040516105c7919061550f565b60405180910390f35b6105d8611975565b6040516105e59190614ebf565b60405180910390f35b61060860048036038101906106039190613ca4565b611a45565b6040516106159190614e7b565b60405180910390f35b61063860048036038101906106339190613ca4565b611b34565b005b610654600480360381019061064f9190613c16565b611ca1565b60405161066898979695949392919061552a565b60405180910390f35b610679611d09565b6040516106869190615027565b60405180910390f35b6106a960048036038101906106a49190613b23565b611d61565b005b6106b36122a4565b6040516106c0919061550f565b60405180910390f35b6106e360048036038101906106de9190613c16565b6122a9565b005b6106ed612343565b005b6106f7612440565b604051610704919061550f565b60405180910390f35b61071561244d565b604051610722919061509c565b60405180910390f35b61074560048036038101906107409190613aab565b612460565b005b610761600480360381019061075c9190613aab565b6125a4565b60405161076e919061509c565b60405180910390f35b610791600480360381019061078c9190613ca4565b6125c4565b60405161079e9190614f77565b60405180910390f35b6107c160048036038101906107bc9190613ca4565b612797565b6040516107ce9190615027565b60405180910390f35b6107f160048036038101906107ec9190613ca4565b612838565b60405161080194939291906155a8565b60405180910390f35b610824600480360381019061081f9190613c16565b61288f565b604051610831919061550f565b60405180910390f35b6108426128b0565b60405161084f9190615027565b60405180910390f35b610872600480360381019061086d9190613c16565b612908565b60405161088799989796959493929190615133565b60405180910390f35b6108986129fb565b6040516108a5919061550f565b60405180910390f35b6108b6612a00565b6040516108c3919061550f565b60405180910390f35b6108d4612a06565b6040516108e1919061550f565b60405180910390f35b61090460048036038101906108ff9190613c16565b612a0b565b6040516109119190614d62565b60405180910390f35b610922612a47565b60405161092f919061550f565b60405180910390f35b610952600480360381019061094d9190613c16565b612a54565b60405161095f919061509c565b60405180910390f35b610982600480360381019061097d9190613ca4565b612a8b565b6040516109959796959493929190615685565b60405180910390f35b6109b860048036038101906109b39190613c16565b612ae0565b6040516109ca969594939291906150b7565b60405180910390f35b6109db612b29565b6040516109e8919061550f565b60405180910390f35b610a0b6004803603810190610a069190613c16565b612b2e565b604051610a189190614ef6565b60405180910390f35b610a29612dac565b604051610a36919061550f565b60405180910390f35b610a47612db2565b604051610a549190615118565b60405180910390f35b610a776004803603810190610a729190613ad4565b612db7565b005b610a816131f0565b604051610a8e919061550f565b60405180910390f35b610a9f6131f5565b604051610aac9190614d62565b60405180910390f35b610abd61321b565b604051610aca919061550f565b60405180910390f35b610adb613222565b604051610ae8919061550f565b60405180910390f35b603360009054906101000a900473ffffffffffffffffffffffffffffffffffffffff1673ffffffffffffffffffffffffffffffffffffffff163373ffffffffffffffffffffffffffffffffffffffff1614610b81576040517f08c379a0000000000000000000000000000000000000000000000000000000008152600401610b7890615227565b60405180910390fd5b8060928190555050565b606082820367ffffffffffffffff81118015610ba657600080fd5b50604051908082528060200260200182016040528015610be057816020015b610bcd613520565b815260200190600190039081610bc55790505b50905060008390505b82811015610c99576098600060938381548110610c0257fe5b906000526020600020015481526020019081526020016000206040518060c00160405290816000820160009054906101000a900460ff16151515158152602001600182015481526020016002820154815260200160038201548152602001600482015481526020016005820154815250508285830381518110610c8157fe5b60200260200101819052508080600101915050610be9565b5092915050565b60606037805480602002602001604051908101604052809291908181526020018280548015610cee57602002820191906000526020600020905b815481526020019060010190808311610cda575b5050505050905090565b603360009054906101000a900473ffffffffffffffffffffffffffffffffffffffff1673ffffffffffffffffffffffffffffffffffffffff163373ffffffffffffffffffffffffffffffffffffffff1614610d88576040517f08c379a0000000000000000000000000000000000000000000000000000000008152600401610d7f90615227565b60405180910390fd5b8060918190555050565b60608060378054905067ffffffffffffffff81118015610db157600080fd5b50604051908082528060200260200182016040528015610deb57816020015b610dd8613558565b815260200190600190039081610dd05790505b50905060005b603780549050811015610f3957603b8181548110610e0b57fe5b906000526020600020906009020160405180610120016040529081600082018054600181600116156101000203166002900480601f016020809104026020016040519081016040528092919081815260200182805460018160011615610100020316600290048015610ebe5780601f10610e9357610100808354040283529160200191610ebe565b820191906000526020600020905b815481529060010190602001808311610ea157829003601f168201915b5050505050815260200160018201548152602001600282015481526020016003820154815260200160048201548152602001600582015481526020016006820154815260200160078201548152602001600882015481525050828281518110610f2357fe5b6020026020010181905250600181019050610df1565b508091505090565b603460149054906101000a900460ff1615610f91576040517f08c379a0000000000000000000000000000000000000000000000000000000008152600401610f8890615367565b60405180910390fd5b6090544210610fd5576040517f08c379a0000000000000000000000000000000000000000000000000000000008152600401610fcc906151c7565b60405180910390fd5b600081600060078110610fe457fe5b60200201519050600082600160078110610ffa57fe5b6020020151905060008360026007811061101057fe5b6020020151905060008460036007811061102657fe5b6020020151905060008560046007811061103c57fe5b6020020151905060008660056007811061105257fe5b6020020151905060008760066007811061106857fe5b60200201519050603660009054906101000a900460ff166111825761108b6135a4565b6040518060a0016040528089815260200188815260200187815260200186815260200185815250905073__Verifier______________________________63275abc628d8d8d856040518563ffffffff1660e01b81526004016110f19493929190614fe0565b60206040518083038186803b15801561110957600080fd5b505af415801561111d573d6000803e3d6000fd5b505050506040513d601f19601f820116820180604052508101906111419190613bed565b611180576040517f08c379a000000000000000000000000000000000000000000000000000000000815260040161117790615307565b60405180910390fd5b505b6095548411156111c7576040517f08c379a00000000000000000000000000000000000000000000000000000000081526004016111be906153a7565b60405180910390fd5b6098600087815260200190815260200160002060000160009054906101000a900460ff166111ff576111fa866000613228565b611262565b611208866114c3565b6008609a60008881526020019081526020016000208054905010611261576040517f08c379a000000000000000000000000000000000000000000000000000000000815260040161125890615207565b60405180910390fd5b5b61126b876114c3565b73__DarkForestPlanet______________________6307ffcebf8888868686604b6096546097609a609b6040518b63ffffffff1660e01b81526004016112ba9a999897969594939291906156f4565b60006040518083038186803b1580156112d257600080fd5b505af41580156112e6573d6000803e3d6000fd5b50505050609660008154809291906001019190505550611304613467565b7f73589d8f04c4286010ba8cbf687f804de4f668cb96b2d8c73f310ceb90a48fc0600160965403604051611338919061550f565b60405180910390a15050505050505050505050565b6039818154811061135a57fe5b906000526020600020016000915090505481565b606060388054806020026020016040519081016040528092919081815260200182805480156113bc57602002820191906000526020600020905b8154815260200190600101908083116113a8575b5050505050905090565b603a81815481106113d357fe5b906000526020600020016000915090505481565b603781815481106113f457fe5b906000526020600020016000915090505481565b60976020528060005260406000206000915090508060000160009054906101000a900473ffffffffffffffffffffffffffffffffffffffff16908060010154908060020154908060030154908060040154908060050160009054906101000a900460ff169080600601549080600701549080600801549080600901549080600a01549080600b0160009054906101000a900460ff1690508c565b603881815481106114af57fe5b906000526020600020016000915090505481565b603460009054906101000a900473ffffffffffffffffffffffffffffffffffffffff1673ffffffffffffffffffffffffffffffffffffffff16633af32abf336040518263ffffffff1660e01b815260040161151e9190614d7d565b60206040518083038186803b15801561153657600080fd5b505afa15801561154a573d6000803e3d6000fd5b505050506040513d601f19601f8201168201806040525081019061156e9190613bed565b6115ad576040517f08c379a00000000000000000000000000000000000000000000000000000000081526004016115a490615287565b60405180910390fd5b603460149054906101000a900460ff16156115fd576040517f08c379a00000000000000000000000000000000000000000000000000000000081526004016115f490615367565b60405180910390fd5b6090544210611641576040517f08c379a0000000000000000000000000000000000000000000000000000000008152600401611638906151c7565b60405180910390fd5b6098600082815260200190815260200160002060000160009054906101000a900460ff166116a4576040517f08c379a000000000000000000000000000000000000000000000000000000000815260040161169b906153e7565b60405180910390fd5b73__DarkForestLazyUpdate__________________63b2fe553b82609a60976098609b6040518663ffffffff1660e01b81526004016116e79594939291906155ed565b60006040518083038186803b1580156116ff57600080fd5b505af4158015611713573d6000803e3d6000fd5b5050505073__DarkForestLazyUpdate__________________634c0d90316097600084815260200190815260200160002060986000858152602001908152602001600020426040518463ffffffff1660e01b815260040161177693929190615485565b60006040518083038186803b15801561178e57600080fd5b505af41580156117a2573d6000803e3d6000fd5b5050505050565b603360009054906101000a900473ffffffffffffffffffffffffffffffffffffffff1673ffffffffffffffffffffffffffffffffffffffff163373ffffffffffffffffffffffffffffffffffffffff1614611839576040517f08c379a000000000000000000000000000000000000000000000000000000000815260040161183090615227565b60405180910390fd5b603460149054906101000a900460ff16611888576040517f08c379a000000000000000000000000000000000000000000000000000000000815260040161187f90615387565b60405180910390fd5b6000603460146101000a81548160ff021916908315150217905550565b60608083830367ffffffffffffffff811180156118c157600080fd5b506040519080825280602002602001820160405280156118f557816020015b60608152602001906001900390816118e05790505b50905060008490505b8381101561194c576119266093828154811061191657fe5b9060005260206000200154612b2e565b828683038151811061193457fe5b602002602001018190525080806001019150506118fe565b508091505092915050565b60955481565b603460149054906101000a900460ff1681565b601181565b61197d6135c6565b603c600380602002604051908101604052809291906000905b82821015611a3c578382601c0201600480602002604051908101604052809291906000905b82821015611a29578382600702016040518060e0016040529081600082015481526020016001820154815260200160028201548152602001600382015481526020016004820154815260200160058201548152602001600682015481525050815260200190600101906119bb565b5050505081526020019060010190611996565b50505050905090565b606082820367ffffffffffffffff81118015611a6057600080fd5b50604051908082528060200260200182016040528015611a8f5781602001602082028036833780820191505090505b50905060008390505b82811015611b2d5760948181548110611aad57fe5b9060005260206000200160009054906101000a900473ffffffffffffffffffffffffffffffffffffffff168285830381518110611ae657fe5b602002602001019073ffffffffffffffffffffffffffffffffffffffff16908173ffffffffffffffffffffffffffffffffffffffff16815250508080600101915050611a98565b5092915050565b603460149054906101000a900460ff1615611b84576040517f08c379a0000000000000000000000000000000000000000000000000000000008152600401611b7b90615367565b60405180910390fd5b6090544210611bc8576040517f08c379a0000000000000000000000000000000000000000000000000000000008152600401611bbf906151c7565b60405180910390fd5b611bd1826114c3565b73__DarkForestPlanet______________________63e73f4ba8609760008581526020019081526020016000206098600086815260200190815260200160002084603b603c6040518663ffffffff1660e01b8152600401611c369594939291906154bc565b60006040518083038186803b158015611c4e57600080fd5b505af4158015611c62573d6000803e3d6000fd5b505050507f1c3559377dd1e586346f593aa9785e8eea8298f2d2ce1c2ef50428563d8ba84c82604051611c95919061550f565b60405180910390a15050565b609b6020528060005260406000206000915090508060000154908060010160009054906101000a900473ffffffffffffffffffffffffffffffffffffffff16908060020154908060030154908060040154908060050154908060060154908060070154905088565b60606039805480602002602001604051908101604052809291908181526020018280548015611d5757602002820191906000526020600020905b815481526020019060010190808311611d43575b5050505050905090565b603460009054906101000a900473ffffffffffffffffffffffffffffffffffffffff1673ffffffffffffffffffffffffffffffffffffffff16633af32abf336040518263ffffffff1660e01b8152600401611dbc9190614d7d565b60206040518083038186803b158015611dd457600080fd5b505afa158015611de8573d6000803e3d6000fd5b505050506040513d601f19601f82011682018060405250810190611e0c9190613bed565b611e4b576040517f08c379a0000000000000000000000000000000000000000000000000000000008152600401611e4290615287565b60405180910390fd5b603460149054906101000a900460ff1615611e9b576040517f08c379a0000000000000000000000000000000000000000000000000000000008152600401611e9290615367565b60405180910390fd5b6090544210611edf576040517f08c379a0000000000000000000000000000000000000000000000000000000008152600401611ed6906151c7565b60405180910390fd5b603660009054906101000a900460ff16611fc05773__Verifier______________________________638eff8954858585856040518563ffffffff1660e01b8152600401611f309493929190614f99565b60206040518083038186803b158015611f4857600080fd5b505af4158015611f5c573d6000803e3d6000fd5b505050506040513d601f19601f82011682018060405250810190611f809190613bed565b611fbf576040517f08c379a0000000000000000000000000000000000000000000000000000000008152600401611fb690615267565b60405180910390fd5b5b600081600060038110611fcf57fe5b60200201519050600082600260038110611fe557fe5b60200201519050609960003373ffffffffffffffffffffffffffffffffffffffff1673ffffffffffffffffffffffffffffffffffffffff16815260200190815260200160002060009054906101000a900460ff1615612079576040517f08c379a000000000000000000000000000000000000000000000000000000000815260040161207090615247565b60405180910390fd5b6098600083815260200190815260200160002060000160009054906101000a900460ff16156120dd576040517f08c379a00000000000000000000000000000000000000000000000000000000081526004016120d4906152c7565b60405180910390fd5b609554811115612122576040517f08c379a0000000000000000000000000000000000000000000000000000000008152600401612119906152a7565b60405180910390fd5b6001609960003373ffffffffffffffffffffffffffffffffffffffff1673ffffffffffffffffffffffffffffffffffffffff16815260200190815260200160002060006101000a81548160ff0219169083151502179055506094339080600181540180825580915050600190039060005260206000200160009091909190916101000a81548173ffffffffffffffffffffffffffffffffffffffff021916908373ffffffffffffffffffffffffffffffffffffffff1602179055506121e8826001613228565b336097600084815260200190815260200160002060000160006101000a81548173ffffffffffffffffffffffffffffffffffffffff021916908373ffffffffffffffffffffffffffffffffffffffff160217905550620124f86097600084815260200190815260200160002060020181905550612263613467565b7f5765df5ce7cf4175ef997923b4936159dcf3cea059434dab4643214d690a2b953383604051612294929190614d98565b60405180910390a1505050505050565b601081565b603360009054906101000a900473ffffffffffffffffffffffffffffffffffffffff1673ffffffffffffffffffffffffffffffffffffffff163373ffffffffffffffffffffffffffffffffffffffff1614612339576040517f08c379a000000000000000000000000000000000000000000000000000000000815260040161233090615227565b60405180910390fd5b8060908190555050565b603360009054906101000a900473ffffffffffffffffffffffffffffffffffffffff1673ffffffffffffffffffffffffffffffffffffffff163373ffffffffffffffffffffffffffffffffffffffff16146123d3576040517f08c379a00000000000000000000000000000000000000000000000000000000081526004016123ca90615227565b60405180910390fd5b603460149054906101000a900460ff1615612423576040517f08c379a000000000000000000000000000000000000000000000000000000000815260040161241a906153c7565b60405180910390fd5b6001603460146101000a81548160ff021916908315150217905550565b6000609480549050905090565b603660009054906101000a900460ff1681565b603360009054906101000a900473ffffffffffffffffffffffffffffffffffffffff1673ffffffffffffffffffffffffffffffffffffffff163373ffffffffffffffffffffffffffffffffffffffff16146124f0576040517f08c379a00000000000000000000000000000000000000000000000000000000081526004016124e790615227565b60405180910390fd5b600073ffffffffffffffffffffffffffffffffffffffff168173ffffffffffffffffffffffffffffffffffffffff161415612560576040517f08c379a0000000000000000000000000000000000000000000000000000000008152600401612557906151e7565b60405180910390fd5b80603360006101000a81548173ffffffffffffffffffffffffffffffffffffffff021916908373ffffffffffffffffffffffffffffffffffffffff16021790555050565b60996020528060005260406000206000915054906101000a900460ff1681565b606082820367ffffffffffffffff811180156125df57600080fd5b5060405190808252806020026020018201604052801561261957816020015b6126066135f3565b8152602001906001900390816125fe5790505b50905060008390505b8281101561279057609760006093838154811061263b57fe5b90600052602060002001548152602001908152602001600020604051806101800160405290816000820160009054906101000a900473ffffffffffffffffffffffffffffffffffffffff1673ffffffffffffffffffffffffffffffffffffffff1673ffffffffffffffffffffffffffffffffffffffff168152602001600182015481526020016002820154815260200160038201548152602001600482015481526020016005820160009054906101000a900460ff1660018111156126fc57fe5b600181111561270757fe5b815260200160068201548152602001600782015481526020016008820154815260200160098201548152602001600a8201548152602001600b820160009054906101000a900460ff16600181111561275b57fe5b600181111561276657fe5b81525050828583038151811061277857fe5b60200260200101819052508080600101915050612622565b5092915050565b606082820367ffffffffffffffff811180156127b257600080fd5b506040519080825280602002602001820160405280156127e15781602001602082028036833780820191505090505b50905060008390505b8281101561283157609381815481106127ff57fe5b9060005260206000200154828583038151811061281857fe5b60200260200101818152505080806001019150506127ea565b5092915050565b609a602052816000526040600020818154811061285157fe5b9060005260206000209060040201600091509150508060000154908060010160009054906101000a900460ff16908060020154908060030154905084565b6093818154811061289c57fe5b906000526020600020016000915090505481565b6060603a8054806020026020016040519081016040528092919081815260200182805480156128fe57602002820191906000526020600020905b8154815260200190600101908083116128ea575b5050505050905090565b603b818154811061291557fe5b9060005260206000209060090201600091509050806000018054600181600116156101000203166002900480601f0160208091040260200160405190810160405280929190818152602001828054600181600116156101000203166002900480156129c15780601f10612996576101008083540402835291602001916129c1565b820191906000526020600020905b8154815290600101906020018083116129a457829003601f168201915b5050505050908060010154908060020154908060030154908060040154908060050154908060060154908060070154908060080154905089565b603281565b60965481565b601281565b60948181548110612a1857fe5b906000526020600020016000915054906101000a900473ffffffffffffffffffffffffffffffffffffffff1681565b6000609380549050905090565b60006140007f30644e72e131a029b85045b68181585d2833e84879b9709143e1f593f000000181612a8157fe5b0482109050919050565b603c8260038110612a9857fe5b601c02018160048110612aa757fe5b60070201600091509150508060000154908060010154908060020154908060030154908060040154908060050154908060060154905087565b60986020528060005260406000206000915090508060000160009054906101000a900460ff16908060010154908060020154908060030154908060040154908060050154905086565b604b81565b60606000805b609a600085815260200190815260200160002080549050811015612bbe57600080811115612b5e57fe5b609a60008681526020019081526020016000208281548110612b7c57fe5b906000526020600020906004020160010160009054906101000a900460ff166000811115612ba657fe5b1415612bb3576001820191505b600181019050612b34565b508067ffffffffffffffff81118015612bd657600080fd5b50604051908082528060200260200182016040528015612c1057816020015b612bfd613680565b815260200190600190039081612bf55790505b5091506000805b609a600086815260200190815260200160002080549050811015612da457600080811115612c4157fe5b609a60008781526020019081526020016000208281548110612c5f57fe5b906000526020600020906004020160010160009054906101000a900460ff166000811115612c8957fe5b1415612d9957609b6000609a60008881526020019081526020016000208381548110612cb157fe5b906000526020600020906004020160000154815260200190815260200160002060405180610100016040529081600082015481526020016001820160009054906101000a900473ffffffffffffffffffffffffffffffffffffffff1673ffffffffffffffffffffffffffffffffffffffff1673ffffffffffffffffffffffffffffffffffffffff1681526020016002820154815260200160038201548152602001600482015481526020016005820154815260200160068201548152602001600782015481525050848381518110612d8557fe5b602002602001018190525081806001019250505b600181019050612c17565b505050919050565b61400081565b600090565b600060019054906101000a900460ff1680612dd65750612dd5613509565b5b80612dec575060008054906101000a900460ff16155b612e2b576040517f08c379a0000000000000000000000000000000000000000000000000000000008152600401612e2290615327565b60405180910390fd5b60008060019054906101000a900460ff161590508015612e7b576001600060016101000a81548160ff02191690831515021790555060016000806101000a81548160ff0219169083151502179055505b83603360006101000a81548173ffffffffffffffffffffffffffffffffffffffff021916908373ffffffffffffffffffffffffffffffffffffffff16021790555082603460006101000a81548173ffffffffffffffffffffffffffffffffffffffff021916908373ffffffffffffffffffffffffffffffffffffffff1602179055506000603460146101000a81548160ff021916908315150217905550600160358190555081603660006101000a81548160ff021916908315150217905550635f375dc06090819055506032609181905550600c60928190555060405180604001604052806201000062ffffff168152602001600062ffffff168152506038906002612f889291906136db565b50604051806101000160405280630100000063ffffffff168152602001623fffd063ffffffff168152602001620fffc463ffffffff1681526020016203ffc163ffffffff16815260200161ffc063ffffffff168152602001613fc063ffffffff168152602001610fc063ffffffff1681526020016103c063ffffffff16815250603790600861301892919061372f565b5073__DarkForestInitialize__________________635dfd086d603b6040518263ffffffff1660e01b81526004016130519190614f3a565b60006040518083038186803b15801561306957600080fd5b505af415801561307d573d6000803e3d6000fd5b5050505073__DarkForestInitialize__________________63e771ed6b603c6040518263ffffffff1660e01b81526004016130b99190614edb565b60006040518083038186803b1580156130d157600080fd5b505af41580156130e5573d6000803e3d6000fd5b50505050604051806101000160405280600060ff168152602001600060ff168152602001600060ff168152602001600060ff168152602001600060ff168152602001600060ff168152602001600060ff168152602001600060ff16815250603a906008613153929190613784565b5060005b6037805490508110156131c05760396140006037838154811061317657fe5b906000526020600020015463010000008161318d57fe5b04029080600181540180825580915050600190039060005260206000200160009091909190915055600181019050613157565b506131c9613467565b80156131ea5760008060016101000a81548160ff0219169083151502179055505b50505050565b600481565b603360009054906101000a900473ffffffffffffffffffffffffffffffffffffffff1681565b62030d4081565b60355481565b61323182612a54565b613270576040517f08c379a000000000000000000000000000000000000000000000000000000000815260040161326790615347565b60405180910390fd5b60008073__DarkForestUtils_______________________63eb70cb218560046037603b6040518563ffffffff1660e01b81526004016132b39493929190615640565b604080518083038186803b1580156132ca57600080fd5b505af41580156132de573d6000803e3d6000fd5b505050506040513d601f19601f820116820180604052508101906133029190613c68565b915091506000613310612db2565b9050831561335c576000831461335b576040517f08c379a0000000000000000000000000000000000000000000000000000000008152600401613352906152e7565b60405180910390fd5b5b73__DarkForestPlanet______________________632d5d4f0d6097600088815260200190815260200160002060986000898152602001908152602001600020603b87815481106133a957fe5b906000526020600020906009020160355486888a8d6040518963ffffffff1660e01b81526004016133e1989796959493929190615407565b60006040518083038186803b1580156133f957600080fd5b505af415801561340d573d6000803e3d6000fd5b5050505060938590806001815401808255809150506001900390600052602060002001600090919091909150556001603a848154811061344957fe5b90600052602060002001600082825401925050819055505050505050565b73__DarkForestUtils_______________________63c30403df603a60396094805490506091546092546040518663ffffffff1660e01b81526004016134b1959493929190615049565b60206040518083038186803b1580156134c957600080fd5b505af41580156134dd573d6000803e3d6000fd5b505050506040513d601f19601f820116820180604052508101906135019190613c3f565b609581905550565b6000803090506000813b9050600081149250505090565b6040518060c0016040528060001515815260200160008152602001600081526020016000815260200160008152602001600081525090565b6040518061012001604052806060815260200160008152602001600081526020016000815260200160008152602001600081526020016000815260200160008152602001600081525090565b6040518060a00160405280600590602082028036833780820191505090505090565b60405180606001604052806003905b6135dd6137d6565b8152602001906001900390816135d55790505090565b604051806101800160405280600073ffffffffffffffffffffffffffffffffffffffff168152602001600081526020016000815260200160008152602001600081526020016000600181111561364557fe5b815260200160008152602001600081526020016000815260200160008152602001600081526020016000600181111561367a57fe5b81525090565b60405180610100016040528060008152602001600073ffffffffffffffffffffffffffffffffffffffff1681526020016000815260200160008152602001600081526020016000815260200160008152602001600081525090565b82805482825590600052602060002090810192821561371e579160200282015b8281111561371d578251829062ffffff169055916020019190600101906136fb565b5b50905061372b9190613803565b5090565b828054828255906000526020600020908101928215613773579160200282015b82811115613772578251829063ffffffff1690559160200191906001019061374f565b5b5090506137809190613803565b5090565b8280548282559060005260206000209081019282156137c5579160200282015b828111156137c4578251829060ff169055916020019190600101906137a4565b5b5090506137d29190613803565b5090565b60405180608001604052806004905b6137ed613820565b8152602001906001900390816137e55790505090565b5b8082111561381c576000816000905550600101613804565b5090565b6040518060e00160405280600081526020016000815260200160008152602001600081526020016000815260200160008152602001600081525090565b60008135905061386c81615c83565b92915050565b600082601f83011261388357600080fd5b6002613896613891826157bd565b615790565b915081838560408402820111156138ac57600080fd5b60005b838110156138dc57816138c288826138e6565b8452602084019350604083019250506001810190506138af565b5050505092915050565b600082601f8301126138f757600080fd5b600261390a613905826157df565b615790565b9150818385602084028201111561392057600080fd5b60005b8381101561395057816139368882613a81565b845260208401935060208301925050600181019050613923565b5050505092915050565b600082601f83011261396b57600080fd5b600361397e61397982615801565b615790565b9150818385602084028201111561399457600080fd5b60005b838110156139c457816139aa8882613a81565b845260208401935060208301925050600181019050613997565b5050505092915050565b600082601f8301126139df57600080fd5b60076139f26139ed82615823565b615790565b91508183856020840282011115613a0857600080fd5b60005b83811015613a385781613a1e8882613a81565b845260208401935060208301925050600181019050613a0b565b5050505092915050565b600081359050613a5181615c9a565b92915050565b600081519050613a6681615c9a565b92915050565b600081519050613a7b81615cb1565b92915050565b600081359050613a9081615cc1565b92915050565b600081519050613aa581615cc1565b92915050565b600060208284031215613abd57600080fd5b6000613acb8482850161385d565b91505092915050565b600080600060608486031215613ae957600080fd5b6000613af78682870161385d565b9350506020613b088682870161385d565b9250506040613b1986828701613a42565b9150509250925092565b6000806000806101608587031215613b3a57600080fd5b6000613b48878288016138e6565b9450506040613b5987828801613872565b93505060c0613b6a878288016138e6565b925050610100613b7c8782880161395a565b91505092959194509250565b6000806000806101e08587031215613b9f57600080fd5b6000613bad878288016138e6565b9450506040613bbe87828801613872565b93505060c0613bcf878288016138e6565b925050610100613be1878288016139ce565b91505092959194509250565b600060208284031215613bff57600080fd5b6000613c0d84828501613a57565b91505092915050565b600060208284031215613c2857600080fd5b6000613c3684828501613a81565b91505092915050565b600060208284031215613c5157600080fd5b6000613c5f84828501613a96565b91505092915050565b60008060408385031215613c7b57600080fd5b6000613c8985828601613a96565b9250506020613c9a85828601613a6c565b9150509250929050565b60008060408385031215613cb757600080fd5b6000613cc585828601613a81565b9250506020613cd685828601613a81565b9150509250929050565b6000613cec8383613df2565b60208301905092915050565b6000613d048383613f98565b905092915050565b6000613d18838361418c565b6103808301905092915050565b6000613d31838361423a565b60408301905092915050565b6000613d4983836149ab565b6101008301905092915050565b6000613d628383614a4d565b905092915050565b6000613d768383614b19565b60c08301905092915050565b6000613d8e8383614b9b565b6101808301905092915050565b6000613da78383614c98565b60e08301905092915050565b6000613dbf8383614d26565b60208301905092915050565b6000613dd78383614d53565b60208301905092915050565b613dec81615bac565b82525050565b613dfb81615b2b565b82525050565b613e0a81615b2b565b82525050565b6000613e1b826158f1565b613e258185615a34565b9350613e3083615845565b8060005b83811015613e61578151613e488882613ce0565b9750613e538361598b565b925050600181019050613e34565b5085935050505092915050565b6000613e79826158fc565b613e838185615a45565b935083602082028501613e9585615855565b8060005b85811015613ed15784840389528151613eb28582613cf8565b9450613ebd83615998565b925060208a01995050600181019050613e99565b50829750879550505050505092915050565b613eec81615907565b613ef68184615a56565b9250613f0182615865565b8060005b83811015613f32578151613f198782613d0c565b9650613f24836159a5565b925050600181019050613f05565b505050505050565b8082525050565b613f4a81615912565b613f548184615a61565b9250613f5f8261586f565b8060005b83811015613f90578151613f778782613d25565b9650613f82836159b2565b925050600181019050613f63565b505050505050565b6000613fa38261591d565b613fad8185615a6c565b9350613fb883615879565b8060005b83811015613fe9578151613fd08882613d3d565b9750613fdb836159bf565b925050600181019050613fbc565b5085935050505092915050565b60006140018261591d565b61400b8185615a7d565b935061401683615879565b8060005b8381101561404757815161402e8882613d3d565b9750614039836159bf565b92505060018101905061401a565b5085935050505092915050565b600061405f82615928565b6140698185615a8e565b93508360208202850161407b85615889565b8060005b858110156140b757848403895281516140988582613d56565b94506140a3836159cc565b925060208a0199505060018101905061407f565b50829750879550505050505092915050565b8082525050565b60006140db82615933565b6140e58185615a9f565b93506140f083615899565b8060005b838110156141215781516141088882613d6a565b9750614113836159d9565b9250506001810190506140f4565b5085935050505092915050565b60006141398261593e565b6141438185615ab0565b935061414e836158a9565b8060005b8381101561417f5781516141668882613d82565b9750614171836159e6565b925050600181019050614152565b5085935050505092915050565b61419581615949565b61419f8184615ac1565b92506141aa826158b9565b8060005b838110156141db5781516141c28782613d9b565b96506141cd836159f3565b9250506001810190506141ae565b505050505050565b6141ec81615954565b6141f68184615acc565b9250614201826158c3565b8060005b838110156142325781516142198782613dcb565b965061422483615a00565b925050600181019050614205565b505050505050565b61424381615954565b61424d8184615ad7565b9250614258826158c3565b8060005b838110156142895781516142708782613dcb565b965061427b83615a00565b92505060018101905061425c565b505050505050565b61429a8161595f565b6142a48184615ae2565b92506142af826158cd565b8060005b838110156142e05781516142c78782613dcb565b96506142d283615a0d565b9250506001810190506142b3565b505050505050565b6142f18161596a565b6142fb8184615aed565b9250614306826158d7565b8060005b8381101561433757815161431e8782613dcb565b965061432983615a1a565b92505060018101905061430a565b505050505050565b600061434a82615975565b6143548185615af8565b935061435f836158e1565b8060005b838110156143905781516143778882613db3565b975061438283615a27565b925050600181019050614363565b5085935050505092915050565b8082525050565b6143ad81615b3d565b82525050565b6143bc81615b3d565b82525050565b6143cb81615bbe565b82525050565b6143da81615bd0565b82525050565b6143e981615bd0565b82525050565b6143f881615bd0565b82525050565b61440781615be2565b82525050565b61441681615be2565b82525050565b61442581615be2565b82525050565b8082525050565b8082525050565b8082525050565b8082525050565b600061445282615980565b61445c8185615b09565b935061446c818560208601615c18565b61447581615c4b565b840191505092915050565b600061448b82615980565b6144958185615b1a565b93506144a5818560208601615c18565b6144ae81615c4b565b840191505092915050565b60006144c6600f83615b1a565b91507f47616d65206861766520656e64656400000000000000000000000000000000006000830152602082019050919050565b6000614506601683615b1a565b91507f6e65774f776e65722063616e6e6f7420626520307830000000000000000000006000830152602082019050919050565b6000614546601683615b1a565b91507f506c616e657420697320726174652d6c696d69746564000000000000000000006000830152602082019050919050565b6000614586601b83615b1a565b91507f53656e646572206973206e6f7420612067616d65206d617374657200000000006000830152602082019050919050565b60006145c6601d83615b1a565b91507f506c6179657220697320616c726561647920696e697469616c697a65640000006000830152602082019050919050565b6000614606601783615b1a565b91507f4661696c656420696e69742070726f6f6620636865636b0000000000000000006000830152602082019050919050565b6000614646601983615b1a565b91507f506c61796572206973206e6f742077686974656c6973746564000000000000006000830152602082019050919050565b6000614686603383615b1a565b91507f496e69742072616469757320697320626967676572207468616e20746865206360008301527f757272656e7420776f726c6420726164697573000000000000000000000000006020830152604082019050919050565b60006146ec601d83615b1a565b91507f506c616e657420697320616c726561647920696e697469616c697a65640000006000830152602082019050919050565b600061472c602583615b1a565b91507f43616e206f6e6c7920696e697469616c697a65206f6e20706c616e6574206c6560008301527f76656c20300000000000000000000000000000000000000000000000000000006020830152604082019050919050565b6000614792601783615b1a565b91507f4661696c6564206d6f76652070726f6f6620636865636b0000000000000000006000830152602082019050919050565b60006147d2602e83615b1a565b91507f436f6e747261637420696e7374616e63652068617320616c726561647920626560008301527f656e20696e697469616c697a65640000000000000000000000000000000000006020830152604082019050919050565b6000614838601b83615b1a565b91507f4e6f7420612076616c696420706c616e6574206c6f636174696f6e00000000006000830152602082019050919050565b6000614878600e83615b1a565b91507f47616d65206973207061757365640000000000000000000000000000000000006000830152602082019050919050565b60006148b8601883615b1a565b91507f47616d6520697320616c726561647920756e70617573656400000000000000006000830152602082019050919050565b60006148f8602083615b1a565b91507f417474656d7074696e6720746f206d6f7665206f7574206f6620626f756e64736000830152602082019050919050565b6000614938601683615b1a565b91507f47616d6520697320616c726561647920706175736564000000000000000000006000830152602082019050919050565b6000614978601f83615b1a565b91507f506c616e657420686173206e6f74206265656e20696e697469616c697a6564006000830152602082019050919050565b610100820160008201516149c26000850182614d26565b5060208201516149d56020850182613df2565b5060408201516149e86040850182614d26565b5060608201516149fb6060850182614d26565b506080820151614a0e6080850182614d26565b5060a0820151614a2160a0850182614d26565b5060c0820151614a3460c0850182614d26565b5060e0820151614a4760e0850182614d26565b50505050565b6000610120830160008301518482036000860152614a6b8282614447565b9150506020830151614a806020860182614d26565b506040830151614a936040860182614d26565b506060830151614aa66060860182614d26565b506080830151614ab96080860182614d26565b5060a0830151614acc60a0860182614d26565b5060c0830151614adf60c0860182614d26565b5060e0830151614af260e0860182614d26565b50610100830151614b07610100860182614d26565b508091505092915050565b8082525050565b60c082016000820151614b2f60008501826143a4565b506020820151614b426020850182614d26565b506040820151614b556040850182614d26565b506060820151614b686060850182614d26565b506080820151614b7b6080850182614d26565b5060a0820151614b8e60a0850182614d26565b50505050565b8082525050565b61018082016000820151614bb26000850182613df2565b506020820151614bc56020850182614d26565b506040820151614bd86040850182614d26565b506060820151614beb6060850182614d26565b506080820151614bfe6080850182614d26565b5060a0820151614c1160a08501826143d1565b5060c0820151614c2460c0850182614d26565b5060e0820151614c3760e0850182614d26565b50610100820151614c4c610100850182614d26565b50610120820151614c61610120850182614d26565b50610140820151614c76610140850182614d26565b50610160820151614c8b6101608501826143fe565b50505050565b8082525050565b60e082016000820151614cae6000850182614d26565b506020820151614cc16020850182614d26565b506040820151614cd46040850182614d26565b506060820151614ce76060850182614d26565b506080820151614cfa6080850182614d26565b5060a0820151614d0d60a0850182614d26565b5060c0820151614d2060c0850182614d26565b50505050565b614d2f81615ba2565b82525050565b614d3e81615ba2565b82525050565b614d4d81615ba2565b82525050565b614d5c81615ba2565b82525050565b6000602082019050614d776000830184613e01565b92915050565b6000602082019050614d926000830184613de3565b92915050565b6000604082019050614dad6000830185613de3565b614dba6020830184614d35565b9392505050565b600061018082019050614dd7600083018f613e01565b614de4602083018e614d35565b614df1604083018d614d35565b614dfe606083018c614d35565b614e0b608083018b614d35565b614e1860a083018a6143e0565b614e2560c0830189614d35565b614e3260e0830188614d35565b614e40610100830187614d35565b614e4e610120830186614d35565b614e5c610140830185614d35565b614e6a61016083018461440d565b9d9c50505050505050505050505050565b60006020820190508181036000830152614e958184613e10565b905092915050565b60006020820190508181036000830152614eb78184613e6e565b905092915050565b6000610a8082019050614ed56000830184613ee3565b92915050565b6000602082019050614ef06000830184613f3a565b92915050565b60006020820190508181036000830152614f108184613ff6565b905092915050565b60006020820190508181036000830152614f328184614054565b905092915050565b6000602082019050614f4f60008301846140c9565b92915050565b60006020820190508181036000830152614f6f81846140d0565b905092915050565b60006020820190508181036000830152614f91818461412e565b905092915050565b600061016082019050614faf60008301876141e3565b614fbc6040830186613f41565b614fc960c08301856141e3565b614fd7610100830184614291565b95945050505050565b60006101a082019050614ff660008301876141e3565b6150036040830186613f41565b61501060c08301856141e3565b61501e6101008301846142e8565b95945050505050565b60006020820190508181036000830152615041818461433f565b905092915050565b600060a08201905061505e600083018861439d565b61506b602083018761439d565b6150786040830186614d44565b6150856060830185614d44565b6150926080830184614d44565b9695505050505050565b60006020820190506150b160008301846143b3565b92915050565b600060c0820190506150cc60008301896143b3565b6150d96020830188614d35565b6150e66040830187614d35565b6150f36060830186614d35565b6151006080830185614d35565b61510d60a0830184614d35565b979650505050505050565b600060208201905061512d600083018461440d565b92915050565b600061012082019050818103600083015261514e818c614480565b905061515d602083018b614d35565b61516a604083018a614d35565b6151776060830189614d35565b6151846080830188614d35565b61519160a0830187614d35565b61519e60c0830186614d35565b6151ab60e0830185614d35565b6151b9610100830184614d35565b9a9950505050505050505050565b600060208201905081810360008301526151e0816144b9565b9050919050565b60006020820190508181036000830152615200816144f9565b9050919050565b6000602082019050818103600083015261522081614539565b9050919050565b6000602082019050818103600083015261524081614579565b9050919050565b60006020820190508181036000830152615260816145b9565b9050919050565b60006020820190508181036000830152615280816145f9565b9050919050565b600060208201905081810360008301526152a081614639565b9050919050565b600060208201905081810360008301526152c081614679565b9050919050565b600060208201905081810360008301526152e0816146df565b9050919050565b600060208201905081810360008301526153008161471f565b9050919050565b6000602082019050818103600083015261532081614785565b9050919050565b60006020820190508181036000830152615340816147c5565b9050919050565b600060208201905081810360008301526153608161482b565b9050919050565b600060208201905081810360008301526153808161486b565b9050919050565b600060208201905081810360008301526153a0816148ab565b9050919050565b600060208201905081810360008301526153c0816148eb565b9050919050565b600060208201905081810360008301526153e08161492b565b9050919050565b600060208201905081810360008301526154008161496b565b9050919050565b60006101008201905061541d600083018b614c91565b61542a602083018a614b94565b6154376040830189614b12565b6154446060830188614d44565b615451608083018761441c565b61545e60a08301866143ef565b61546b60c0830185614d44565b61547860e0830184614d44565b9998505050505050505050565b600060608201905061549a6000830186614c91565b6154a76020830185614b94565b6154b46040830184614d44565b949350505050565b600060a0820190506154d16000830188614c91565b6154de6020830187614b94565b6154eb6040830186614d44565b6154f860608301856140c9565b6155056080830184613f3a565b9695505050505050565b60006020820190506155246000830184614d35565b92915050565b600061010082019050615540600083018b614d35565b61554d602083018a613e01565b61555a6040830189614d35565b6155676060830188614d35565b6155746080830187614d35565b61558160a0830186614d35565b61558e60c0830185614d35565b61559b60e0830184614d35565b9998505050505050505050565b60006080820190506155bd6000830187614d35565b6155ca60208301866143c2565b6155d76040830185614d35565b6155e46060830184614d35565b95945050505050565b600060a0820190506156026000830188614d44565b61560f602083018761442b565b61561c6040830186614440565b6156296060830185614439565b6156366080830184614432565b9695505050505050565b60006080820190506156556000830187614d44565b6156626020830186614d44565b61566f604083018561439d565b61567c60608301846140c9565b95945050505050565b600060e08201905061569a600083018a614d35565b6156a76020830189614d35565b6156b46040830188614d35565b6156c16060830187614d35565b6156ce6080830186614d35565b6156db60a0830185614d35565b6156e860c0830184614d35565b98975050505050505050565b60006101408201905061570a600083018d614d44565b615717602083018c614d44565b615724604083018b614d44565b615731606083018a614d44565b61573e6080830189614d44565b61574b60a0830188614d44565b61575860c0830187614d44565b61576560e0830186614440565b61577361010083018561442b565b615781610120830184614432565b9b9a5050505050505050505050565b6000604051905081810181811067ffffffffffffffff821117156157b357600080fd5b8060405250919050565b600067ffffffffffffffff8211156157d457600080fd5b602082029050919050565b600067ffffffffffffffff8211156157f657600080fd5b602082029050919050565b600067ffffffffffffffff82111561581857600080fd5b602082029050919050565b600067ffffffffffffffff82111561583a57600080fd5b602082029050919050565b6000819050602082019050919050565b6000819050602082019050919050565b6000819050919050565b6000819050919050565b6000819050602082019050919050565b6000819050602082019050919050565b6000819050602082019050919050565b6000819050602082019050919050565b6000819050919050565b6000819050919050565b6000819050919050565b6000819050919050565b6000819050602082019050919050565b600081519050919050565b600081519050919050565b600060039050919050565b600060029050919050565b600081519050919050565b600081519050919050565b600081519050919050565b600081519050919050565b600060049050919050565b600060029050919050565b600060039050919050565b600060059050919050565b600081519050919050565b600081519050919050565b6000602082019050919050565b6000602082019050919050565b6000602082019050919050565b6000602082019050919050565b6000602082019050919050565b6000602082019050919050565b6000602082019050919050565b6000602082019050919050565b6000602082019050919050565b6000602082019050919050565b6000602082019050919050565b6000602082019050919050565b6000602082019050919050565b600082825260208201905092915050565b600082825260208201905092915050565b600081905092915050565b600081905092915050565b600082825260208201905092915050565b600082825260208201905092915050565b600082825260208201905092915050565b600082825260208201905092915050565b600082825260208201905092915050565b600081905092915050565b600081905092915050565b600081905092915050565b600081905092915050565b600081905092915050565b600082825260208201905092915050565b600082825260208201905092915050565b600082825260208201905092915050565b6000615b3682615b82565b9050919050565b60008115159050919050565b6000819050615b5782615c5c565b919050565b6000819050615b6a82615c69565b919050565b6000819050615b7d82615c76565b919050565b600073ffffffffffffffffffffffffffffffffffffffff82169050919050565b6000819050919050565b6000615bb782615bf4565b9050919050565b6000615bc982615b49565b9050919050565b6000615bdb82615b5c565b9050919050565b6000615bed82615b6f565b9050919050565b6000615bff82615c06565b9050919050565b6000615c1182615b82565b9050919050565b60005b83811015615c36578082015181840152602081019050615c1b565b83811115615c45576000848401525b50505050565b6000601f19601f8301169050919050565b60018110615c6657fe5b50565b60028110615c7357fe5b50565b60028110615c8057fe5b50565b615c8c81615b2b565b8114615c9757600080fd5b50565b615ca381615b3d565b8114615cae57600080fd5b50565b60028110615cbe57600080fd5b50565b615cca81615ba2565b8114615cd557600080fd5b5056fea26469706673582212208abe0373b188d1d06f2fef41174e2a0192ebdcee18ab429c2d0c69cb1a135e9d64736f6c634300060c0033",
  "compiler": {
    "name": "solc",
    "version": "0.6.12+commit.27d51765.Emscripten.clang",
    "optimizer": {
      "enabled": false,
      "runs": 200
    },
    "evmVersion": "petersburg"
  }
}